S00C00004E47434D2E73726563F3
S11300000C9468000C9485000C9485000C94680A88
S11300100C9485000C94D10B0C94C3100C948500A3
S11300200C9485000C9485000C9485000C94850038
S11300300C94B80A0C9485000C9485000C948500EB
S11300400C946E110C9485000C94B1020C947902FA
S11300500C9485000C941F010C9485000C94E20B05
S11300600C9485000C94850040042A05B105B10563
S1130070B105B1051304B105A504B105B105B10578
S1130080E604B105B105B105B105B105B105B10588
S1130090B105B105B105B1051304B105B105B1054B
S11300A0B105B105B10502043C1636163616101515
S11300B064163616361636163616361636164515A0
S11300C0361636166D15161636161C160D152A1606
S11300D011241FBECFEFD4E0DEBFCDBF12E0A0E0FD
S11300E0B1E0ECEDF3E302C005900D92A43EB1073C
S11300F0D9F724E0A4EEB2E001C01D92AA38B207F9
S1130100E1F70E940E0C0C94EC190C940000A4E688
S1130110B0E09C919E7F9C93E7ECF0E03197F1F77F
S113012000C00000806480937C0083B7817F82607C
S113013083BFEAE7F0E080E8808380818860808381
S1130140808183608083808180648083F89483B716
S1130150816083BF7894889583B78E7F83BF7894BA
S1130160809178002091790010829C9191609C93F9
S113017090E0922B089582E590E00E94C9199C01B9
S11301802F503109213F334010F080E891E0089569
S113019080E590E00E94C9199C0121503109203862
S11301A0334010F080E090E00895CF92DF92EF9218
S11301B0FF920F931F93CF93DF930E94C8008C018B
S11301C00E94BB00EC0186E00E9487000817190713
S11301D058F5BC01601B710B80E090E00E942C1864
S11301E06B017C01BE0180E090E00E942C189B0111
S11301F0AC01C701B6010E948B1720E030E048EC47
S113020052E40E94E3180E94FD17C62F80E090E09C
S11302100E942C1820E030E048EC52E40E94DE18E2
S113022018161CF4C4E601C0C0E08C2FDF91CF91F6
S11302301F910F91FF90EF90DF90CF9008951F9240
S11302400F920FB60F92112400000F900FBE0F9063
S11302501F901895FC01618710861082118212820A
S11302601382148215821682178208950F93CF93F6
S1130270FC01B62F80859185891720F1915041E0CA
S113028050E002C0440F551F9A95E2F7952F990F3D
S1130290990B2081242331813523428149235381C1
S11302A0592364816923758179238681A781C1E0FB
S11302B089239A23A0E00E949C1909F4C0E0C0930A
S11302C0E40204C01092E4028F5F808720813181B0
S11302D042815381648175818681978101E00E9406
S11302E06519B22BB083318342835383648375834E
S11302F0868397838091E402CF910F910895FC0146
S1130300808508950F931F93FC01A085AA2309F10A
S11303100A2F10E00150110921E030E040E050E0E4
S113032060E070E080E090E00E946519B0812B23CA
S1130330B1813B23B2814B23B3815B23B4816B2313
S1130340B5817B23B6818B23B7819B23A150A087E2
S113035008C020E030E040E050E060E070E080E081
S113036090E0E1E0A0E00E949C1909F4E0E08E2F07
S11303701F910F910895CF92DF92EF92FF920F9306
S11303801F93CF93DF93CDB7DEB72F970FB6F894B3
S1130390DEBF0FBECDBF7C010EE613E085E1D801C0
S11303A01D928A95E9F785E0F801878780E58087C3
S11303B081E58183E2E7F4E08081D80151968C9352
S11303C05197818112968C9312970F2EF6E7CF2EB8
S11303D0F4E0DF2EF02DF601828950968C9350972D
S11303E0838113968C9382E894E00E946E10D60168
S11303F050968D919C9151971C964D915D916D9164
S11304007C911F97F801448344275F70282F22951D
S1130410207F252B2583929582958F7089279F7045
S11304208927868347E06CE773E0C7010E94491778
S113043064ED72E0C7010E94E91647E065E773E0E6
S1130440CE0101960E944917BE016F5F7F4FC7011D
S11304500E94E91664ED72E0C7010E94E91647E0C4
S1130460B801CE0101960E944917BE016F5F7F4F0C
S1130470C7010E94E91664ED72E0C7010E94E91603
S11304802F960FB6F894DEBF0FBECDBFDF91CF918C
S11304901F910F91FF90EF90DF90CF9008951092ED
S11304A0C50083E38093C40086E08093C20008956E
S11304B010924B0410924C048091C600E1ECF0E0E1
S11304C08081806980830895E1ECF0E080818F76FB
S11304D0808308959093E6028093E502892B41F08E
S11304E0E1ECF0E080818860808380818062808399
S11304F008951F920F920FB60F9211248F939F931A
S1130500EF93FF93E091E502F091E6028081882366
S113051051F0CF0101969093E6028093E502808129
S11305208093C60015C0E1ECF0E080818F7D80836C
S11305308081877F80838091740481FF09C0E4E710
S1130540F4E080818E7F808380818D7F80835D9ABB
S1130550FF91EF919F918F910F900FBE0F901F907D
S113056018951F920F920FB60F9211248F939F9399
S1130570EF93FF938091C60090914B04933128F53B
S11305808D30B1F4E0914B0481E08E0F80934B04E5
S1130590F0E0E45BFB4F108280916D0380648093F4
S11305A06D0380915B03813091F480935C030FC0F1
S11305B08A3069F0E0914B0491E09E0F90934B04D4
S11305C0F0E0E45BFB4F808302C010924B04FF9188
S11305D0EF919F918F910F900FBE0F901F901895E0
S11305E0FC018081682760838DE19081992324F444
S11305F0990F9827908302C0990F90834150A9F7CF
S11306000895CF92DF92EF92FF920F931F93CF93AF
S1130610DF93FC01EB01C12C10E00F2EFFE1EF2E64
S1130620F12CF02DDD24D394D701A11BB109AA0F1D
S1130630BB1F23E030E040E050E060E070E080E089
S113064090E00A2F0E946519B0812B23B1813B23CE
S1130650B2814B23B3815B23B4816B23B5817B23AC
S11306600681B78180239B230A2F0E9480198881E9
S11306709981AA81BB81880F991FAA1FBB1F8883F8
S11306809983AA83BB83322F3D7F31F481608883B1
S11306909983AA83BB8303C0233009F0C3941F5FEB
S11306A08D2D92E09C1508F480E0882331F08D2D87
S11306B0103208F080E08111B7CF8C2DDF91CF91FB
S11306C01F910F91FF90EF90DF90CF9008951F93AB
S11306D0CF93DF93E4E6F0E08081877F8083E1E8D5
S11306E0F0E0108210928000109285001092840035
S11306F0AAE8B0E080E892E511969C938E938D91E0
S11307009C9180589E4F90931F0380931E0384E016
S113071086BB80936F0081E08083809323031092D3
S1130720220310922103459A2998CAE8D0E011E0E7
S113073083B7817F83BF83B7816083BF889583B785
S11307408E7F83BF80912303882349F08881998118
S113075080589E4F90931F0380931E03E9CF8DE42E
S113076093E00E947F01811116C0809122038823A7
S113077041F0459A2998EFE6F0E080818B7F8083F1
S113078022C088819981965F90931F0380931E03F2
S113079010932203CDCF8DE493E00E94820188233D
S11307A049F08881998180589A4F90931F038093D0
S11307B01E03BECF8881998180589C4F90931F035C
S11307C080931E03B5CFDF91CF911F9108958F922F
S11307D09F92AF92BF92CF92DF92EF92FF920F93CC
S11307E01F93CF93DF931F92CDB7DEB7182F7B01F2
S11307F090E08032910508F0B4C1FC01EC5CFF4F3D
S11308000C9450194398459A299880E480932403C2
S1130810449A81E0809320038FE39FE10197F1F7ED
S113082000C00000A9C165E08DE493E00E942A01A4
S1130830EDE4F3E010831182128213821482158294
S11308401682178285E080874398449880E48093D9
S113085024030E946703183139F487E0809320034E
S113086081E080931D0305C010921D0382E08093F4
S11308702003AFECB7E01197F1F700C000007CC192
S11308808090190390901A03A0901B03B0901C034E
S11308908FEF898345E060E0CE0101960E94F0026B
S11308A06B2D77278827992748E0CE0101960E946F
S11308B0F0026A2D48E0CE0101960E94F002692DF3
S11308C048E0CE0101960E94F00248E0682DCE0176
S11308D001960E94F0026DE28DE493E00E942A01E9
S11308E0EDE4F3E0282D392D4A2D5B2D60E070E016
S11308F080E090E008E00E946519A9812A2B2083FA
S113090031834283538364837583868397838DE223
S11309108087439A44980E94670380911D0388232B
S113092039F086E08093200388E28093240306C094
S113093081E08093200380E280932403EFECF7E0CE
S11309403197F1F700C0000017C18FEF898344E0AD
S113095060E8CE0101960E94F00248E0D7016C9154
S1130960CE0101960E94F00264E18DE493E00E94BE
S11309702A01EDE4F3E01082118288E0828313827D
S11309801482158216821782D7018C90912C982C90
S1130990882489818083918284E1808744980E949D
S11309A0670380911D03882321F086E08093200350
S11309B003C081E08093200382E080932403EFEC62
S11309C0F7E03197F1F700C00000D6C08FEF8983BC
S11309D044E060ECCE0101960E94F00248E0D701A9
S11309E06C91CE0101960E94F00264E18DE493E0E3
S11309F00E942A01EDE4F3E0108211828CE08283EC
S1130A0013821482158216821782D7018C90912C3E
S1130A10982C882489818083918284E180874498FA
S1130A200E94670380911D03882339F086E0809338
S1130A30200388E28093240306C081E0809320038E
S1130A4080E280932403EFECF7E03197F1F700C0E4
S1130A50000092C08FEF89836B01F4E0CF0ED11CAC
S1130A605B0148E0D6016E916D01CE0101960E94B2
S1130A70F002AC14BD04A9F768E28DE493E00E948F
S1130A802A01EDE4F3E0D7018D909D90AD90BC90E8
S1130A90282D392D4A2D5B2D60E070E080E090E038
S1130AA008E00E946519A9812A2B2083318342839F
S1130AB05383648375838683978388E2808744980D
S1130AC00E94670380911D03882321F086E08093B0
S1130AD0200303C081E08093200382E080932403F9
S1130AE0EFE6F7E13197F1F700C0000045C08091CF
S1130AF02103882361F0109221038DE493E00E9486
S1130B007F0190912403891708F05AC0F0CF80E642
S1130B1094E00E940E11882351F38DE493E00E9427
S1130B207F0190E02091240330E0225031098217A4
S1130B3093070CF447C0EDE4F3E020813181428156
S1130B405381648175818681978101E00E946519D2
S1130B50208331834283538364837583868397839D
S1130B6032C000E0E4E6F0E08081886080831F31D9
S1130B7009F03FC0439A3DC0609124038DE493E0A3
S1130B800E942A0181E00E94541168E070E080E62E
S1130B9094E00E94D51080E694E00E94FE10EBE6FB
S1130BA0F0E0808181608083D89AE8E6F0E080817B
S1130BB08160808381E08093E7021092210397CFC4
S1130BC001E001C000E0EBE6F0E080818E7F8083ED
S1130BD0E8E6F0E080818E7F80831092E70268EE81
S1130BE073E080E694E00E94D51080E00E945411E6
S1130BF0B9CF802F0F90DF91CF911F910F91FF906C
S1130C00EF90DF90CF90BF90AF909F908F9008951A
S1130C108F929F92AF92BF92CF92DF92EF92FF9208
S1130C200F93CF93DF9300D000D0CDB7DEB760E051
S1130C3070E088E10E94E703882309F4C9C019829F
S1130C401A821B821C82BE016F5F7F4F8DE493E08A
S1130C500E940103EDE4F3E020813181428153815C
S1130C6064817581868197810F2EF5E2EF2EF3E082
S1130C70FF2EF02DD7012C9311963C9311971296C9
S1130C804C93129713965C93139714966C93149742
S1130C9015967C93159716968C93169717969C9396
S1130CA00F2EFFE2CF2EF3E0DF2EF02DD6012C9392
S1130CB011963C93119712964C93129713965C934A
S1130CC0139714966C93149715967C931597169610
S1130CD08C93169717969C930F2EF9E3AF2EF3E09F
S1130CE0BF2EF02DD5012C9311963C93119712969B
S1130CF04C93129713965C93139714966C931497D2
S1130D0015967C93159716968C93169717969C9325
S1130D100F2EF3E48F2EF3E09F2EF02DD4012C93AD
S1130D2011963C93119712964C93129713965C93D9
S1130D30139714966C93149715967C93159716969F
S1130D408C93169717969C9301E00E948019208338
S1130D50318342835383648375838683978369EFE6
S1130D6072E0CF010E940103F4018081807F8083BF
S1130D7065EF72E0C4010E940103D5018C91807F6C
S1130D8083608C9361EF72E0C5010E940103F60158
S1130D908081807F886080836DEE72E0C6010E944E
S1130DA00103D7018C918F608C9369EE72E0C701C7
S1130DB00E94010389819A81AB81BC8180931903CC
S1130DC090931A03A0931B03B0931C0381E001C00A
S1130DD080E00F900F900F900F90DF91CF910F91C3
S1130DE0FF90EF90DF90CF90BF90AF909F908F9047
S1130DF008958F929F92AF92BF92CF92DF92EF921B
S1130E00FF920F93CF93DF931F92CDB7DEB795E098
S1130E109983EDEFF2E09385981B93878285861B77
S1130E208287992314F410920803882314F41092EF
S1130E300703BE016F5F7F4F88E00E94E7038823AA
S1130E4081F165E073E081E00E94E703882359F1B2
S1130E50BE016F5F7F4F8CE00E94E703882329F176
S1130E60EDE4F3E0318142815381648120E070E05C
S1130E7080E090E008E00E948019822E932EA42E38
S1130E80B52E81E04091050350910603609107035C
S1130E9070910803481559056A057B0539F080E00F
S1130EA005C080E003C080E001C080E090910803A9
S1130EB0911103C091E090935E030F90DF91CF9165
S1130EC00F91FF90EF90DF90CF90BF90AF909F90E5
S1130ED08F9008957F928F929F92AF92BF92CF92FC
S1130EE0DF92EF92FF920F931F93CF93DF93CDB7CF
S1130EF0DEB72D970FB6F894DEBF0FBECDBFD82E48
S1130F004A011092E8020E94E703882309F4A0C072
S1130F1080911D03882309F487C0EDE4F3E0C080C9
S1130F20318142815381648120E070E080E090E06F
S1130F3008E00E948019822F932FA42FB52F898354
S1130F409A83AB83BC837C2C2FEF2D83D11083C079
S1130F50B06C89839A83AB83BC837DC048E0F8017D
S1130F6062918F01CE0105960E94F0020A151B05BD
S1130F70A9F78D8178120DC081E08093E802898100
S1130F809A81AB81BC81F40180839183A283B38372
S1130F905FC0EDE4F3E0318142815381648120E05C
S1130FA070E080E090E008E00E9480192E833F8387
S1130FB0488759876A877B878C879D878E819F8125
S1130FC0A885B985880F991FAA1FBB1F89839A8397
S1130FD0AB83BC831C2D110F2FEF2D83D11005C0C3
S1130FE0B06C89839A83AB83BC8348E0F701629138
S1130FF07F01CE0105960E94F002EA14FB04A9F7D2
S11310008D81181721F0912F9160891321C081E0FF
S11310108093E80289819A81AB81BC81F401808349
S11310209183A283B38314C080914D0390914E03A6
S1131030A0914F03B091500380959095A095B095E1
S1131040F40180839183A283B38381E08093E802D7
S11310508091E80209C07E01F5E0EF0EF11CCE019B
S113106001965C0187017ACF2D960FB6F894DEBF06
S11310700FBECDBFDF91CF911F910F91FF90EF90E5
S1131080DF90CF90BF90AF909F908F907F90089506
S11310903F924F925F926F927F928F929F92AF9204
S11310A0BF92CF92DF92EF92FF920F931F93CF9351
S11310B0DF93CDB7DEB729970FB6F894DEBF0FBE26
S11310C0CDBF1AE00F2EF7E03F2EF02D0F2EFDEFCF
S11310D0EF2EF2E0FF2EF02D0F2EF5E58F2E982C3B
S11310E0FAEAAF2EFAE7BF2EF02D0F2EFDE4CF2E35
S11310F0F3E0DF2EF02D0F2EFAEA4F2E512CF0E6FE
S11311006F2EF9EC7F2EF02D4598299A8FE19EE4FD
S11311100197F1F700C000000E940806882309F433
S113112094C01982EFE1FEE43197F1F700C00000AA
S113113045E153E0BE016F5F7F4F80E00E946A0784
S1131140882309F482C03982BE016F5F7F4F88E033
S11311500E94E703882309F478C0F7018082918212
S1131160A282B382B70181E00E94E703882309F4D5
S11311706CC0BE016F5F7F4F8CE00E94E703882341
S113118009F463C0F601318142815381648120E016
S113119070E080E090E008E00E9480192A833B839D
S11311A04C835D836E837F8388879987F701808171
S11311B09181A281B3812A813B814C815D81821717
S11311C09307A407B50709F040C081E08983BE01F5
S11311D06F5F7F4F88E00E94E7038823B1F1F70136
S11311E0408E518E628E738E65E173E081E00E94C1
S11311F0E703882351F1BE016F5F7F4F8CE00E94AB
S1131200E703882311F1F60131814281538164811E
S113121020E070E080E090E00E9480192A833B8304
S11312204C835D836E837F83888799878A819B81C2
S1131230AC81BD81B06CF701408D518D628D738D91
S113124084179507A607B70729F0115009F05CCF5A
S113125080E001C081E029960FB6F894DEBF0FBE8E
S1131260CDBFDF91CF911F910F91FF90EF90DF9051
S1131270CF90BF90AF909F908F907F906F905F9032
S11312804F903F900895EF92FF920F931F93CF9347
S1131290DF931F92CDB7DEB780E2EDEFF2E0DF011E
S11312A01D928A95E9F71AE07F0105E04598299A8D
S11312B0EFE1FEE43197F1F700C00000D7015C963E
S11312C01D921D921D921C925F970E94080688230E
S11312D009F495C0198245E153E0BE016F5F7F4F69
S11312E080E00E946A0781115AC08091F9029091AE
S11312F0FA02A091FB02B091FC02F701848F958F52
S1131300A68FB78F45E153E0BE016F5F7F4F80E04A
S11313100E946A0781115AC08091E9029091EA0201
S1131320A091EB02B091EC02F701848F958FA68F08
S1131330B78F45E153E0BE016F5F7F4F80E00E94AD
S11313406A07811145C08091F5029091F602A0913F
S1131350F702B091F802F701848F958FA68FB78FAB
S113136045E153E0BE016F5F7F4F80E00E946A0752
S113137081112EC08091F1029091F202A091F302AA
S1131380B091F402F701848F958FA68FB78F45E152
S113139053E0BE016F5F7F4F80E00E946A078111B6
S11313A017C08091ED029091EE02A091EF02B091EE
S11313B0F002F701848F958FA68FB78F45E153E034
S11313C0BE016F5F7F4F80E00E946A078823B9F0F7
S11313D0098345E053E0BE016F5F7F4F8CE00E94BC
S11313E06A0781113DC0098345E053E0BE016F5F88
S11313F07F4F8CE00E946A07882331F031C011507E
S113140009F054CF80E02CC0098345E053E0BE01CD
S11314106F5F7F4F8CE00E946A07811121C00983AE
S113142045E053E0BE016F5F7F4F8CE00E946A0786
S1131430811116C0098345E053E0BE016F5F7F4F01
S11314408CE00E946A0781110BC0098345E053E0D8
S1131450BE016F5F7F4F8CE00E946A07882379F298
S11314600F90DF91CF911F910F91FF90EF9008950E
S11314708DEF92E008956091F9027091FA028091E3
S1131480FB029091FC0208956091F5027091F602BE
S11314908091F7029091F80208956091F1027091A1
S11314A0F2028091F3029091F40208956091ED02AA
S11314B07091EE028091EF029091F0020895609194
S11314C0E9027091EA028091EB029091EC02089596
S11314D01F920F920FB60F9211242F933F934F93A5
S11314E05F936F937F938F939F93AF93BF93EF9388
S11314F0FF938091E702882319F1189B28C08091FB
S11315002003811119C08DE493E00E947F01909122
S113151024038917E0F41A9B06C061E08DE493E08C
S11315200E94360105C060E08DE493E00E9436011C
S113153081E0809321030BC081508093200307C076
S11315401D9905C080916D03846080936D03FF91A4
S1131550EF91BF91AF919F918F917F916F915F9127
S11315604F913F912F910F900FBE0F901F901895A0
S11315701F920F920FB60F9211248F939F93809115
S11315801E0390911F0390938B0080938A00809197
S11315902303882339F080912203811105C04598E3
S11315A0299A02C0459A29989091230381E08927BA
S11315B0809323039F918F910F900FBE0F901F90E4
S11315C01895E0916A04E5304CF4EF5FE0936A0407
S11315D00E2E000CFF0BE559FB4F80830895E0911C
S11315E06A04EE235CF08FEF8E0F80936A040E2E54
S11315F0000CFF0BE559FB4F808108958FEF089590
S11316008FEF80936A0408958AED84B92A98289804
S11316102D982E982F98299A2D9A8EEB87B9409859
S1131620469A41984298439A4498459A599A82EE28
S11316308AB9589A5A9A5B9A599A5D9A5E9A5F9AAD
S113164081E080937E005D9AEDE6F0E08081806128
S11316508083808188608083808184608083EBE6DE
S1131660F0E080818E7F808380818F7D80838FEE08
S1131670809364000895837099278130910511F057
S113168024F406C05D9A429808955D9A429A08959A
S11316905D9842980895CF93DF93A82FB0E0FD01A1
S11316A0B09690962C9141E050E002C0440F551F33
S11316B06A95E2F730E02423352391E024173507B7
S11316C009F090E060E071E0A0E002C060E0922FD9
S11316D0CFECD7E02197F1F700C00000208130E083
S11316E024233523872F2417350709F08A2F282F21
S11316F08913ECCF6F5F633050F3DF91CF9108957E
S11317002E982F98811102C02E9A01C02F9A8FE42F
S113171093EC0197F1F700C000002E982F980895DC
S1131720CF93DF93E4E6F0E080818E7F8083AAE7A5
S1131730B0E08C918F778C93CBE7D0E08881806484
S1131740888387E480937C0080B7816080BF80B702
S1131750826080BF80B7806480BF87EC90E001978F
S1131760F1F700C0000080B78F7780BF80B7806139
S113177080BF80B7886080BF8C918F778C93808185
S113178081608083DF91CF91089580B7877F80BF88
S1131790EBE7F0E080818F7B808380B7806880BF37
S11317A008951F920F920FB60F9211248F93809178
S11317B06D03826080936D038F910F900FBE0F9025
S11317C01F9018951F920F920FB60F9211242F930A
S11317D03F934F935F936F937F938F939F93AF93B5
S11317E0BF93EF93FF935E9A5F9A299A459A5D9A05
S11317F00E94C50B87E00E94E10AFF91EF91BF911F
S1131800AF919F918F917F916F915F914F913F9194
S11318102F910F900FBE0F901F9018950E944E109D
S11318200E94040B0E94F1100E941A0F0E944F02A2
S1131830789489B18D71809371040CE414E0C6E549
S1131840D4E00F2EF4E7AF2EF4E0BF2EF02D0F2ED0
S1131850F1ECEF2EF12CF02D0F2EF4E68F2E912CBF
S1131860F02D33243394432C632C0F2EFDEE5F2E86
S1131870F02D0F2EFDE6CF2ED12CF02D0E94EF0A75
S11318808F3F09F44EC10E94341080915B03813074
S113189021F580915C03813011F5712C01C0762C07
S11318A0F8018081813171F48181803359F482811E
S11318B0803341F483E893E00E94BB0183E893E022
S11318C00E946A0210924B04ECE4F4E01192EC17CB
S11318D0FD07E1F710925C0303C0712C01C0712C69
S11318E0772061F20E944811811147C080915D0305
S11318F0811145C0F501808180FD41C0F7018081DF
S113190083FF0AC0F701808183FDFCCF8FE99FE04C
S11319100197F1F700C00000F40150828091700437
S113192081111AC080915803882369F010925803DA
S11319301092570382E00E94E10A80917104877F2C
S11319408093710415C0F60180818160808383B720
S1131950817F846083BF03C083B7817F83BF83B7E4
S1131960816083BF7894889583B78E7F83BFF89412
S1131970F60180818E7F808302C00E9431117894A9
S1131980000080917004811106C08FE39CE90197E7
S1131990F1F700C00000F89480916D0380935D031B
S11319A010926D03789480915D03882309F466CFC7
S11319B081FF7FC064E089E00E944B0B882359F0CB
S11319C080917004811107C00E94E10AE2E7F4E00B
S11319D080818E7F808362E089E00E944B0B8823A4
S11319E069F08091710482FD03C084E00E94E10AE1
S11319F0809171048460809371040CC0809171049F
S1131A0082FF03C085E00E94E10A809171048B7F0C
S1131A108093710463E089E00E944B0B882359F1A1
S1131A208091710483FD21C083E00E94E10A8091CA
S1131A307004823011F440925703E3E7F4E08081AC
S1131A408B7F808380818D7F808380915903813057
S1131A5021F080915A03813041F483E893E00E949D
S1131A60BB0183E893E00E946A028091710488605C
S1131A708093710419C080917004813021F0909199
S1131A805703992319F04092580309C0811107C0E4
S1131A908091710483FF03C082E00E94E10A809177
S1131AA07104877F8093710480915D038D7F80939F
S1131AB05D0380915D0382FF13C09FEBE4EDF1E0D1
S1131AC09150E040F040E1F700C000001D9903C0D0
S1131AD0832D0E94E10A80915D038B7F80935D03D7
S1131AE080915D0385FF08C086E00E94E10A809131
S1131AF05D038F7D80935D0380915D0386FF08C045
S1131B0089E00E94E10A80915D038F7B80935D03ED
S1131B1080915D0388230CF0A8CE8F7780935D03BA
S1131B20A0CE80915B03813009F0DCCE80915C0310
S1131B30813009F4B4CED6CE00000895E3E7F4E092
S1131B4080818B7F808383E080937604089588E787
S1131B50809376040895109270040E9425130895CA
S1131B605E9A5E988FE39CE90197F1F700C000004C
S1131B705E9A08955F988FE39CE90197F1F700C09E
S1131B8000005F9A08950E948B148091740482FF70
S1131B9008C0E4E7F4E080818B7F808380E00E94CA
S1131BA0E10A0895EF92FF920F931F93CF93DF936F
S1131BB000D000D01F92CDB7DEB7299AE6E7F4E053
S1131BC0808181508083882321F080915E03882363
S1131BD041F0109270040E94251381E080935A030F
S1131BE01DC18091740486FDB4C0E6E6F3E09381E0
S1131BF0818198170CF0A6C08091680318160CF028
S1131C00A1C00E94C50B0E94D50006E714E0D801CC
S1131C1013968C930E94900BE6E6F3E0D80113969A
S1131C208C919081891B938198170CF092C0891B29
S1131C3084300CF481C05E9A809180049091810478
S1131C4004968436910528F490938104809380044B
S1131C5014C0E6E7F4E01386128684859585A6858C
S1131C60B7850196A11DB11D84879587A687B7877F
S1131C70E4E7F4E08081806180836091800486EEF3
S1131C8090E00E94D919EFE1FEE43197F1F700C02A
S1131C9000001BE00E940806882371F11D828FE179
S1131CA09EE40197F1F700C00000AE014F5F5F4F63
S1131CB0BE016B5F7F4F80E00E946A0780935F03E1
S1131CC0811120C00E94380A7C010E943B0AD7017E
S1131CD05C966D937D938D939C935F97AE014F5F5C
S1131CE05F4FBE016B5F7F4F80E00E946A07809365
S1131CF05F03882389F106C0115061F680915F0368
S1131D008823B1F060E070E084E090E00E94F9067E
S1131D10882349F0E6E6F3E083818C5F838388E7D8
S1131D208093760405C0E6E6F3E085818F5F8583C2
S1131D305E98299A459A0DC0E6E6F3E084818F5FA8
S1131D40848307C081E080936C03109270040E9426
S1131D50251310925A0362C00E94380A7C010E9423
S1131D605F0AF701648F758F868F978FAE014F5F7F
S1131D705F4FBE016B5F7F4F80E00E946A078093D4
S1131D805F038111BFCF0E94380A7C010E94440A7C
S1131D90D7015C966D937D938D939C935F97AE0171
S1131DA04F5F5F4FBE016B5F7F4F80E00E946A0709
S1131DB080935F038111A6CF0E94380A7C010E94A0
S1131DC04D0AF701648F758F868F978FAE014F5F31
S1131DD05F4FBE016B5F7F4F80E00E946A07809374
S1131DE05F0381118FCF0E94380A7C010E94560A3A
S1131DF0D7015C966D937D938D939C935F97AE0111
S1131E004F5F5F4FBE016B5F7F4F80E00E946A07A8
S1131E1080935F03882309F46FCF74CF0F900F90E2
S1131E200F900F900F90DF91CF911F910F91FF9022
S1131E30EF900895EF92FF920F931F93CF93DF9348
S1131E401092720410927304109274041092750428
S1131E50E4E7F4E0808188608083E6E7F4E01782B9
S1131E60168211821482158211861086789482E873
S1131E7094E00E946E1087E00E9487002FEF30E705
S1131E8082E0215030408040E1F700C0000087E04C
S1131E900E9487008330924050F10E9443098823B6
S1131EA031F10E94380AFC018085833001F5E6E7B0
S1131EB0F4E08FEF828B118A108A148615861686B9
S1131EC01786E4E7F4E080818061808382E894E00F
S1131ED00E946E105E985F98FFEF29E638E1F1509A
S1131EE020403040E1F700C000005F9A5E9A80E530
S1131EF090E00E94C9198C0182E590E00E94C91902
S1131F007C0180E890E00E94C11980936103C82F8E
S1131F10D0E0CC0FDD1FCE018E579F4F0E94C91910
S1131F209093630380936203CE018C549F4F0E946D
S1131F30C91990937D0480937C0486EE90E00E94FE
S1131F40C11990E08436910528F49093810480931C
S1131F50800409C0109281041092800460E086EE2F
S1131F6090E00E94D9190F3F1F4F09F049C0EF209C
S1131F70E09409F045C047E050E060E070E082E89A
S1131F8094E00E94B119C6E7D4E08FEF9FEF998BDC
S1131F90888B8FEF9FEFDC018C879D87AE87BF878F
S1131FA01F821E82109261031092630310926203D7
S1131FB047E050E060E070E082E894E00E94CF19CE
S1131FC060EA70E080E590E00E94E71960E273E067
S1131FD082E590E00E94E7196091610380E890E057
S1131FE00E94D9196E817F8184EB90E00E94E719E9
S1131FF0609162037091630382E890E00E94E719A4
S1132000F8945D985F988FE05F985E9AEFEFF4E341
S11320102CE0E150F0402040E1F700C000005F9A5E
S11320205E983FEF94E3ECE031509040E040E1F7FC
S113203000C00000815041F75E9A5F9A0E949A1294
S11320400E94000BDA9AE8E6F0E0808184608083E5
S11320508FEF0E94800B10927004DF91CF911F913B
S11320600F91FF90EF90089590E0DC01AA0FBB1F41
S1132070A80FB91F809170049EE1899FA00DB11D26
S11320801124A050BF4F1196ED91FC9112978C91A1
S1132090809370040995809170040895E1E6F0E05E
S11320A080E8808310820895F894A89594B7977F68
S11320B094BFE0E6F0E098E19083806480837894B4
S11320C00895F894A89584B7877F84BFE0E6F0E08C
S11320D0808180618083108278940895CF93DF9308
S11320E0EC018091740484FF19C047E050E060E083
S11320F070E0CE010E94CF1960917C0470917D0440
S11321008091610390E0880F991F8C549F4F0E9427
S1132110E719E4E7F4E080818F7E808347E050E0B4
S113212060E070E0CE010E94B1198091600381509B
S1132130823030F560916203709163038091610392
S113214090E0880F991F8E579F4F0E94E719609166
S11321507C0470917D048091610390E0880F991F45
S11321608C549F4F0E94E71980916003823031F4B0
S11321706091610380E890E00E94D9191092600395
S1132180DF91CF9108951F920F920FB60F921124F1
S11321908F9380916D03806280936D03A8958F91D6
S11321A00F900FBE0F901F901895DC01EEE6F0E043
S11321B080818E7F808314968C9114978D7F8E7F7F
S11321C014968C93149711967C936E9313961C9289
S11321D01E92129716BC81E085BB8081816080834A
S11321E008956FEF70E085E694E00E94D5106FEFDC
S11321F070E080E694E00E94D5100895DC01EEE6DC
S1132200F0E090819E7F908314968C911497826065
S113221014968C938081816080830895FC0184816D
S113222081700895FC01892B91F0848181FF0FC096
S113223082819381019693838283208131818217E5
S1132240930728F013821282848181608483089525
S113225085E694E00E94121180E694E00E94121137
S113226008958091690480FF07C0E9E6F4E08E7F59
S1132270808387E00E94E10A8091640480FF07C0A4
S1132280E4E6F4E08E7F808388E00E94E10A08950A
S11322908091690481FD06C08091640486958170F3
S11322A0819508958FEF0895882369F0E4E6F0E0BE
S11322B080818F7D808384E085BD16BC81E085BBF1
S11322C080936E000895EEE6F0E080818E7F808337
S11322D0E4E6F0E080818062808308951F920F928B
S11322E00FB60F9211242F933F934F935F936F93E5
S11322F07F938F939F93AF93BF93EF93FF930E942A
S11323002811FF91EF91BF91AF919F918F917F9190
S11323106F915F914F913F912F910F900FBE0F904E
S11323201F901895CF93DF9363E089E00E944B0BD5
S1132330882369F08091710483FD03C083E00E94C7
S1132340E10A809171048860809371040CC08091CB
S1132350710483FF03C082E00E94E10A809171044A
S1132360877F809371041092570368EE73E085E6CB
S113237094E00E94D51068EE73E080E694E00E9439
S1132380D51080E00E945411299A459ACBE6D0E0FA
S11323908881897F88835E9A80E090E00E943B0B6D
S11323A05D9888818F7D888341988FEC97E00197B1
S11323B0F1F700C00000429A9FEF20E782E09150BD
S11323C020408040E1F700C0000042985A9A809172
S11323D0720484FF13C080917E0490917F04803D39
S11323E027E0920730F0E2E7F4E0808188608083A0
S11323F005C0019690937F0480937E0487E00E9439
S11324008700873421E0920770F480917B04853043
S113241030F0E2E7F4E080818860808321C08F5F40
S113242080937B041DC010927B0485369140B0F4E8
S113243080917A04853070F08091720484FD10C01C
S1132440E2E7F4E080818061808310927F0410923F
S11324507E0406C08F5F80937A0402C010927A04CF
S11324608091720484FF02C05F9801C05F9A0E9449
S1132470D500809379045D9A682F70E080E090E045
S11324800E942E18C1E020E030E040EA51E40E94AE
S1132490861718160CF4C0E0E2E7F4E08081C0FB74
S11324A086F98083808184FD08C08091720486FF50
S11324B004C087E00E94541002C00E94611063E0CF
S11324C089E00E944B0B882331F08091710488606D
S11324D08093710405C080917104877F8093710497
S11324E0E4E6F0E080818D7F80830E944F020E94A9
S11324F058028091740483FD0DC0809159038111A9
S11325000EC083E893E00E94BB0183E893E00E943D
S11325106A0205C0E4E7F4E08081877F8083EDE60A
S1132520F0E0808180618083808188608083DF9196
S1132530CF9108950E949211089510925903E2E7F1
S1132540F4E080818F7D80838091740480FD7AC063
S11325508091720483FD76C00E9464025D98EDE66A
S1132560F0E080818F7E8083808184608083EBE6CD
S1132570F0E0808180628083D89AE8E6F0E0808190
S1132580816080835E9A5F9AE6E7F4E04681578132
S11325904F5F5F4F578346839A013695279536954B
S11325A02795ABE7B4E10E9456199695879564E6A2
S11325B0689F9001699F300D11244217530711F54C
S11325C081E080936003809162039091630301969C
S11325D0883223E2920728F4909363038093620382
S11325E011C01092630310926203809161038E5FA5
S11325F0823318F48093610302C01092610382E075
S113260080936003483E534070F0E6E7F4E017829D
S11326101682808991890196918B808BE4E7F4E09E
S1132620808180618083419A81E00E94541164EF2B
S113263070E085E694E00E94D51085E694E00E945F
S1132640FE1008951092700408950E94C50B8FEF38
S11326500E94800BE3E7F4E080818E7F80831092F8
S11326605B030E9492110895299A5F9A5E9A86E00C
S11326700E94541081E00E94541160ED73E085E6DD
S113268094E00E94D51085E694E00E94FE1083E059
S11326908093700410925B030895E2E7F4E0808174
S11326A08160808380818062808341988FEC97E091
S11326B00197F1F700C00000429A9FEF20E782E003
S11326C0915020408040E1F700C0000042980E94F1
S11326D034130895E2E7F4E080818160808380818F
S11326E08F7D8083808184FF03C0808188608083A4
S11326F041988FEC97E00197F1F700C00000429AEF
S11327009FEF20E782E0915020408040E1F700C035
S1132710000042980E94341308950F931F93CF939F
S1132720DF93E3E7F4E080818460808381E0809339
S11327305B031092590310925E030E945802809129
S1132740720483FDD2C05E9A5F9AEDE6F0E0808168
S11327508B7F808380818F7E8083C0E007C08FE081
S113276097E20197F1F700C00000CF5F0E94430990
S1132770811103C0C33099F7ADC0C33008F0AAC0BB
S1132780E3E7F4E0808182608083299A82E894E020
S11327900E946E100E94380AFC0180858F73E2E764
S11327A0F4E090819D7F9083833009F442C090913E
S11327B088049F3FC1F49091780489130FC0E6E721
S11327C0F4E091819F5F91839230C0F080938804FC
S11327D0E4E7F4E080818061808310C0E6E7F4E000
S11327E0828311820BC090937804891739F0E2E751
S11327F0F4E080818260808390E012C00E94380AF5
S1132800FC018385181654F40E94380A21E0FC0167
S1132810828518160CF020E0922F01C090E0917090
S1132820E4E7F4E080818F7B8083992309F468C016
S113283015C0E6E7F4E0118283E0828382898F3F4A
S113284041F08FEF80938804E4E7F4E080818061B5
S11328508083E4E7F4E08081806480830E94380A06
S1132860C6E6D3E0FC0182858A830E94380AFC0113
S1132870838589831B821D821C821E825D98FFEFE3
S113288024E38CE0F15020408040E1F700C00000D8
S11328900E94D50006E714E0F801838388835E98DC
S11328A080E00E94800BFFEF20E782E0F15020409F
S11328B08040E1F700C00000E3E7F4E0808181603C
S11328C080830E94900B88E7F801808386E00E9451
S11328D054100DC0E3E7F4E080818D7F8083E2E74C
S11328E0F4E08081826080830BC01092700483E8DE
S11328F093E00E94BB0183E893E00E946A0206C051
S11329000E94341381E080935903F1CFDF91CF917A
S11329101F910F9108950F931F93CF93DF93CDB71A
S1132920DEB7EC970FB6F894DEBF0FBECDBF81E0E3
S11329308093650380938904ECE4F4E00190002023
S1132940E9F73197EC54F4402E2F10928303EE23D1
S113295009F48FC180914C04813109F04DC010926B
S11329604F048DE494E00E949316613231F4E4E75D
S1132970F4E08081846080830BC0623221F480E0C3
S11329800E94800B05C0633219F48FEF0E94800B04
S113299080914C04813109F580914D04803301F517
S11329A080914E048033F9F45D982FEF80E792E034
S11329B0215080409040E1F700C000000E94D50003
S11329C080937904809366035D9ACE0101960E94F8
S11329D0BB019E012F5F3F4F08C020E030E005C0DF
S11329E020E030E002C020E030E0109289048091C1
S11329F06503811151C165C1FF27E55BFB4FE08190
S1132A008E2F90E0FC01E456F109E431F10508F061
S1132A102DC1EC5AFF4F0C94501928E731E036C110
S1132A20233049F510924E0467ED72E08CE494E093
S1132A300E94A819892B09F04AC186E00E948700E8
S1132A408C0180E590E00E94C9198017910720F459
S1132A50B801681B790B02C061E070E082E590E088
S1132A600E94E71960E871E083E893E00E94DA16B7
S1132A7020E030E003C10E94BB00BC0183E893E086
S1132A800E946D1720E030E0F9C02330E1F4109289
S1132A904E0467ED72E08CE494E00E94A819892B3F
S1132AA009F018C186E00E948700BC0180E590E02F
S1132AB00E94E71960E871E083E893E00E94DA1667
S1132AC020E030E0DBC00E94C800BC0183E893E052
S1132AD00E946D1720E030E0D1C00E94380A8C01BA
S1132AE0FC01448D558D668D778DCE0101960E9433
S1132AF02117BE016F5F7F4F83E893E00E94E916C0
S1132B0064ED72E083E893E00E94E916F801408DD9
S1132B10518D628D738DCE0101960E942117BE01E5
S1132B206F5F7F4F83E893E00E94E91664ED72E0E3
S1132B3083E893E00E94E916F8014489558966897F
S1132B407789CE0101960E942117BE016F5F7F4FE6
S1132B5083E893E00E94E91664ED72E083E893E071
S1132B600E94E916F8014089518962897389CE016E
S1132B7001960E942117BE016F5F7F4F83E893E0A7
S1132B800E94E91664ED72E083E893E00E94E9167E
S1132B90F8014485558566857785CE0101960E94A6
S1132BA02117BE016F5F7F4F83E893E00E94E9160F
S1132BB064ED72E083E893E00E94E916F801408531
S1132BC0518562857385CE0101960E942117BE014D
S1132BD06F5F7F4F83E893E00E94E91664ED72E033
S1132BE083E893E00E94E916F801448155816681E7
S1132BF07781CE0101960E94211764ED72E083E88B
S1132C0093E00E94E916F801408151816281738149
S1132C10CE0101960E942117BE016F5F7F4F83E8AA
S1132C2093E00E94E91620E030E028C00E944808A2
S1132C30299A20E030E022C0E4E7F4E08081826059
S1132C4080836AED72E083E893E00E94DA1620E064
S1132C5030E014C00E94D50080937904682F83E883
S1132C6093E00E940C1720E030E008C01092650346
S1132C7028C01092650325C023E831E080916503E4
S1132C808823F9F080918904882331F0E4E7F4E0A3
S1132C908081816080835D989091740492FD11C05D
S1132CA02115310559F464ED72E083E893E00E9444
S1132CB0E91683E893E00E946A0203C0C9010E94F6
S1132CC06A020E94580209C02BE931E0DFCF20E0FC
S1132CD030E0DCCF20E030E0D9CFEC960FB6F894AA
S1132CE0DEBF0FBECDBFDF91CF911F910F9108952D
S1132CF0982F80ED890F8A3040F08FEB890F863052
S1132D0018F489EC890F089580E00895FC0120816E
S1132D10222339F0319680E08F5F91919111FCCF9D
S1132D20089580E00895AF92BF92CF92DF92EF9220
S1132D30FF920F931F93CF93DF93D82FC92F0E9435
S1132D408616A82E882331F10D2F1C2FC82FD0E012
S1132D502197CC0FDD1FCC0FDD1FC12CD12C7601A8
S1132D60B12CF80181918F010E94781690E0A0E0C7
S1132D70B0E00C2E04C0880F991FAA1FBB1F0A9431
S1132D80D2F7C80ED91EEA1EFB1EB3942497AB10CB
S1132D90E8CF03C0C12CD12C7601C701B601DF9165
S1132DA0CF911F910F91FF90EF90DF90CF90BF9044
S1132DB0AF900895FB012081222341F031960196C2
S1132DC0DC0111972C9321912111F9CFFC01108280
S1132DD00895CF93DF93FC018081882339F0CF01DC
S1132DE00196FC01019620812111FBCFDB018C911E
S1132DF0882341F011963196EF01219788838D91B4
S1132E008111F9CF1082DF91CF9108958A3010F4A7
S1132E10805D0895895C08951F93CF93DF93EC013F
S1132E20162F862F82958F700E9406178883812F14
S1132E308F700E94061789831A82DF91CF911F91A8
S1132E4008950F931F93CF93DF9300D000D0CDB795
S1132E50DEB78C0149835A836B837C836C810E9427
S1132E600C176B81C80102960E940C176A81C80175
S1132E7004960E940C176981C80106960E940C17DB
S1132E800F900F900F900F90DF91CF911F910F91A2
S1132E900895EF92FF920F931F93CF93DF934423F0
S1132EA0A9F08B01C82FD92F4150E42EF12C8FEFBC
S1132EB0E81AF80AE60EF71EF80161918F01CE01B7
S1132EC00E940C1722960E151F05B1F7DF91CF91C2
S1132ED01F910F91FF90EF9008950F931F93CF933D
S1132EE0DF9300D0CDB7DEB78C017A8369836A8122
S1132EF00E940C176981C80102960E940C170F905A
S1132F000F90DF91CF911F910F9108950E9469183E
S1132F1008F481E008950E949F170C94A4180E945D
S1132F209D1858F00E94961840F029F45F3F29F04C
S1132F300C948D1851110C94D8180C9493180E9469
S1132F40B51868F39923B1F3552391F3951B550BE9
S1132F50BB27AA2762177307840738F09F5F5F4F68
S1132F60220F331F441FAA1FA9F335D00E2E3AF0A7
S1132F70E0E832D091505040E695001CCAF72BD0BF
S1132F80FE2F29D0660F771F881FBB1F2617370710
S1132F904807AB07B0E809F0BB0B802DBF01FF2742
S1132FA093585F4F3AF09E3F510578F00C948D187A
S1132FB00C94D8185F3FE4F3983ED4F38695779544
S1132FC06795B795F7959F5FC9F7880F911D9695FB
S1132FD0879597F90895E1E0660F771F881FBB1F57
S1132FE0621773078407BA0720F0621B730B840B04
S1132FF0BA0BEE1F88F7E09508950E94BD1888F07B
S11330009F5798F0B92F9927B751B0F0E1F0660FA8
S1133010771F881F991F1AF0BA95C9F714C0B130E9
S113302091F00E94D718B1E008950C94D718672F37
S1133030782F8827B85F39F0B93FCCF38695779518
S11330406795B395D9F73EF4909580957095619501
S11330507F4F8F4F9F4F0895E89409C097FB3EF42C
S113306090958095709561957F4F8F4F9F4F9923D1
S1133070A9F0F92F96E9BB279395F695879577954F
S11330806795B795F111F8CFFAF4BB0F11F460FF0F
S11330901BC06F5F7F4F8F4F9F4F16C0882311F067
S11330A096E911C0772321F09EE8872F762F05C07B
S11330B0662371F096E8862F70E060E02AF09A9516
S11330C0660F771F881FDAF7880F9695879597F90B
S11330D00895990F0008550FAA0BE0E8FEEF1616A5
S11330E01706E807F907C0F012161306E407F507F8
S11330F098F0621B730B840B950B39F40A2661F06C
S1133100232B242B252B21F408950A2609F4A1400E
S1133110A6958FEF811D811D089597F99F6780E81B
S113312070E060E008959FEF80EC089500240A9415
S11331301616170618060906089500240A9412168E
S11331401306140605060895092E0394000C11F4C1
S1133150882352F0BB0F40F4BF2B11F460FF04C06E
S11331606F5F7F4F8F4F9F4F089557FD9058440FC7
S1133170551F59F05F3F71F04795880F97FB991FD2
S113318061F09F3F79F0879508951216130614068F
S1133190551FF2CF4695F1DF08C01616170618061C
S11331A0991FF1CF86957105610508940895E894F7
S11331B0BB2766277727CB0197F908950E946918E2
S11331C008F48FEF08950E94F6180C94A4180E9436
S11331D0961838F00E949D1820F0952311F00C9455
S11331E08D180C94931811240C94D8180E94B518B7
S11331F070F3959FC1F3950F50E0551F629FF00146
S1133200729FBB27F00DB11D639FAA27F00DB11D5E
S1133210AA1F649F6627B00DA11D661F829F2227E7
S1133220B00DA11D621F739FB00DA11D621F839F6E
S1133230A00D611D221F749F3327A00D611D231F44
S1133240849F600D211D822F762F6A2F11249F5792
S113325050409AF0F1F088234AF0EE0FFF1FBB1F95
S1133260661F771F881F91505040A9F79E3F510554
S113327080F00C948D180C94D8185F3FE4F3983EBA
S1133280D4F3869577956795B795F795E7959F5FFE
S1133290C1F7FE2B880F911D9695879597F9089590
S11332A0EE0FFF1F0590F491E02D0994A29FB00149
S11332B0B39FC001A39F700D811D1124911DB29F66
S11332C0700D811D1124911D08950F93083090F005
S11332D0982F872F762F652F542F432F322F222795
S11332E00850F4CF220F331F441F551F661F771F4A
S11332F0881F991F0A95B2F70F91089597FB10F84C
S1133300169400080F93083098F00850232F342F98
S1133310452F562F672F782F892F902DF4CF0594A2
S113332097958795779567955795479537952795F9
S11333300A95AAF70F9108950024A7FD00942A176F
S11333403005400550056005700580059005089519
S1133350FB01DC018D91019080190110D9F3990BC7
S11333600895DC01CB01FC01F999FECF06C0F2BD42
S1133370E1BDF89A319600B40D9241505040B8F72F
S11333800895F999FECF92BD81BDF89A992780B529
S11333900895A8E1B0E042E050E00C94B319DC01D8
S11333A0CB0103C02D910E94DA1941505040D0F74F
S11333B00895262FF999FECF1FBA92BD81BD20BD75
S11333C00FB6F894FA9AF99A0FBE019608950E94DE
S10F33D0D919272F0C94DA19F894FFCFB8
S11333DC019D12009C0D028D13009C0D009C0D0090
S11333EC9C0D00B00D009C0D009C0D00C30D019CA8
S11333FC0D014D13019C0D019C0D009A12019C0DA5
S113340C019C0D006A13019C0D019C0D029C0D0284
S113341C9C0D02A70D029E0D029C0D029C0D02D266
S113342C0D00251302AB0D029C0D009A12039C0D8A
S113343C009A12009A12039C0D039C0D03BA0D0002
S113344C9A12039C0D039C0D56312E32330D0A0037
S113345C4F4B004A616E20323020323032300D0A2C
S113346C31353A31353A34320D0A000D0A3D3D3DC1
S113347C3D3D3D3D3D3D3D3D3D2048656C70204D01
S113348C656E750D0A0D0A6409646973706C617953
S113349C20462F5720636F6D70696C6520646174CE
S11334AC650D0A3031672C6709646F2F646973707A
S11334BC6C617920776569676874206761696E202F
S11334CC63616C6962726174696F6E0D0A68096478
S11334DC6973706C617920746869732068656C70A9
S11334EC206D656E750D0A30316F2C6F09646F2F6A
S11334FC646973706C617920776569676874206F8F
S113350C66667365742063616C6962726174696F59
S113351C6E0D0A7209646973706C6179206C617345
S113352C74207265616420656B65792064617461D3
S113353C0D0A7509756E6C6F636B20736572696126
S113354C6C20636F6D6D756E69636174696F6E73F6
S113355C206D6F64650D0A7609646973706C61790A
S113356C206669726D776172652076657273696F16
S113357C6E0D0A7709646973706C617920776569DB
S113358C676874206D6561737572656D656E740D15
S113359C0A0D0A3D3D3D3D3D3D3D3D3D3D3D3D0D11
S11335AC0A0D0A000D0A00303100554E4C4F434BA6
S10735BC454400007E
S9030000FC
