S00C00004E47434D2E73726563F3
S11300000C9468000C9485000C9485000C94A80A48
S11300100C9485000C94110C0C9436110C948500EE
S11300200C9485000C9485000C9485000C94850038
S11300300C94F80A0C9485000C9485000C948500AB
S11300400C94E1110C9485000C94F3020C94BB0203
S11300500C9485000C941F010C9485000C94220CC4
S11300600C9485000C94850082046C05F305F3055B
S1130070F305F3055504F305E704F305F305F30568
S11300802805F305F305F305F305F305F305F30577
S1130090F305F305F305F3055504F305F305F3053B
S11300A0F305F305F30544049916931693166D1599
S11300B0C116931693169316931693169316A215B8
S11300C093169316CA157316931679166A1587161E
S11300D011241FBECFEFD4E0DEBFCDBF12E0A0E0FD
S11300E0B1E0E6E9F4E302C005900D92A43EB10745
S11300F0D9F724E0A4EEB2E001C01D92AC39B207F6
S1130100E1F70E944E0C0C94491A0C940000A4E6EA
S1130110B0E09C919E7F9C93E7ECF0E03197F1F77F
S113012000C00000806480937C0083B7817F82607C
S113013083BFEAE7F0E080E8808380818860808381
S1130140808183608083808180648083F89483B716
S1130150816083BF7894889583B78E7F83BF7894BA
S1130160809178002091790010829C9191609C93F9
S113017090E0922B089582E590E00E94261A9C015B
S11301802F503109213F334010F080E891E0089569
S113019080E590E00E94261A9C0121503109203804
S11301A0334010F080E090E00895CF92DF92EF9218
S11301B0FF920F931F93CF93DF930E94C8008C018B
S11301C00E94BB00EC0186E00E9487000817190713
S11301D058F5BC01601B710B80E090E00E94891807
S11301E06B017C01BE0180E090E00E9489189B01B4
S11301F0AC01C701B6010E94E81720E030E048ECEA
S113020052E40E9440190E945A18C62F80E090E0E0
S11302100E94891820E030E048EC52E40E943B1927
S113022018161CF4C4E601C0C0E08C2FDF91CF91F6
S11302301F910F91FF90EF90DF90CF9008951F9240
S11302400F920FB60F92112400000F900FBE0F9063
S11302501F901895FC01618710861082118212820A
S11302601382148215821682178208950F93CF93F6
S1130270FC01B62F80859185891720F1915041E0CA
S113028050E002C0440F551F9A95E2F7952F990F3D
S1130290990B2081242331813523428149235381C1
S11302A0592364816923758179238681A781C1E0FB
S11302B089239A23A0E00E94F91909F4C0E0C093AD
S11302C0E40204C01092E4028F5F808720813181B0
S11302D042815381648175818681978101E00E9406
S11302E0C219B22BB08331834283538364837583F1
S11302F0868397838091E402CF910F910895FC0146
S1130300808508950F931F93FC01A085AA2309F10A
S11303100A2F10E00150110921E030E040E050E0E4
S113032060E070E080E090E00E94C219B0812B236D
S1130330B1813B23B2814B23B3815B23B4816B2313
S1130340B5817B23B6818B23B7819B23A150A087E2
S113035008C020E030E040E050E060E070E080E081
S113036090E0E1E0A0E00E94F91909F4E0E08E2FAA
S11303701F910F9108950F931F93CF93DF938C01D7
S1130380EEE6F3E08CE0DF011D928A95E9F7A6E63C
S1130390B3E013968C911397808311968C911197E7
S11303A0818312968C9112978283C2E8D4E02B81C8
S11303B023832C912483209195042387A9E9B4E015
S11303C02C91258311962C9126838A859B85908771
S11303D087838EE894E00E94E1104CE06EE673E0BF
S11303E0C8010E94A61764ED72E0C8010E94461776
S11303F0DF91CF911F910F910895CF92DF92EF92E9
S1130400FF920F931F93CF93DF93CDB7DEB72F9750
S11304100FB6F894DEBF0FBECDBF7C010AE713E030
S113042085E1D8011D928A95E9F785E0F80187876F
S113043080E5808781E58183EEE7F4E08081D8015F
S113044051968C935197818112968C9312970F2E0B
S1130450F2E8CF2EF4E0DF2EF02DF60182895096DB
S11304608C935097838113968C938EE894E00E942A
S1130470E110D60150968D919C9151971C964D9107
S11304805D916D917C911F97F801448344275F70BF
S1130490282F2295207F252B2583929582958F7076
S11304A089279F708927868347E068E873E0C7013E
S11304B00E94A61764ED72E0C7010E94461747E048
S11304C061E873E0CE0101960E94A617BE016F5F3A
S11304D07F4FC7010E94461764ED72E0C7010E9476
S11304E0461747E0B801CE0101960E94A617BE0147
S11304F06F5F7F4FC7010E94461764ED72E0C7012A
S11305000E9446172F960FB6F894DEBF0FBECDBFDC
S1130510DF91CF911F910F91FF90EF90DF90CF90DB
S113052008951092C50083E38093C40086E080930D
S1130530C200089510925704109258048091C60086
S1130540E1ECF0E08081806980830895E1ECF0E0E3
S113055080818F76808308959093E6028093E502EC
S1130560892B41F0E1ECF0E0808188608083808118
S11305708062808308951F920F920FB60F92112408
S11305808F939F93EF93FF93E091E502F091E6023E
S11305908081882351F0CF0101969093E6028093E5
S11305A0E50280818093C60015C0E1ECF0E0808113
S11305B08F7D80838081877F80838091800481FF09
S11305C009C0E0E8F4E080818E7F808380818D7FA4
S11305D080835D9AFF91EF919F918F910F900FBE51
S11305E00F901F9018951F920F920FB60F9211241F
S11305F08F939F93EF93FF938091C600909157043C
S1130600933128F58D30B1F4E091570481E08E0FD9
S113061080935704F0E0E85AFB4F108280916D03F9
S1130620806480936D0380915B03813091F48093A7
S11306305C030FC08A3069F0E091570491E09E0F8B
S113064090935704F0E0E85AFB4F808302C0109265
S11306505704FF91EF919F918F910F900FBE0F90D0
S11306601F901895FC018081682760838DE190813B
S1130670992324F4990F9827908302C0990F9083AB
S11306804150A9F70895CF92DF92EF92FF920F9312
S11306901F93CF93DF93FC01EB01C12C10E00F2ECD
S11306A0FFE1EF2EF12CF02DDD24D394D701A11B13
S11306B0B109AA0FBB1F23E030E040E050E060E046
S11306C070E080E090E00A2F0E94C219B0812B23D1
S11306D0B1813B23B2814B23B3815B23B4816B2370
S11306E0B5817B230681B78180239B230A2F0E9437
S11306F0DD1988819981AA81BB81880F991FAA1F5E
S1130700BB1F88839983AA83BB83322F3D7F31F437
S1130710816088839983AA83BB8303C0233009F053
S1130720C3941F5F8D2D92E09C1508F480E088230C
S113073031F08D2D103208F080E08111B7CF8C2D6F
S1130740DF91CF911F910F91FF90EF90DF90CF90A9
S113075008951F93CF93DF93E4E6F0E08081877FD1
S11307608083E1E8F0E0108210928000109285000E
S113077010928400AAE8B0E080E892E511969C9378
S11307808E938D919C9180589E4F90931F038093DC
S11307901E0384E086BB80936F0081E08083809396
S11307A023031092220310922103459A2998CAE840
S11307B0D0E011E083B7817F83BF83B7816083BFBB
S11307C0889583B78E7F83BF80912303882349F064
S11307D08881998180589E4F90931F0380931E03B4
S11307E0E9CF8DE493E00E947F01811116C08091CE
S11307F02203882341F0459A2998EFE6F0E08081AE
S11308008B7F808322C088819981965F90931F0398
S113081080931E0310932203CDCF8DE493E00E94B6
S11308208201882349F08881998180589A4F909356
S11308301F0380931E03BECF8881998180589C4FEB
S113084090931F0380931E03B5CFDF91CF911F9127
S113085008958F929F92AF92BF92CF92DF92EF92C0
S1130860FF920F931F93CF93DF931F92CDB7DEB701
S1130870182F7B0190E08032910508F0B4C1FC018F
S1130880EC5CFF4F0C94AD194398459A299880E489
S113089080932403449A81E0809320038FE39FE1B3
S11308A00197F1F700C00000A9C165E08DE493E071
S11308B00E942A01EDE4F3E0108311821282138274
S11308C0148215821682178285E0808743984498A3
S11308D080E4809324030E94A903183139F487E04B
S11308E08093200381E080931D0305C010921D03B3
S11308F082E080932003AFECB7E01197F1F700C0DA
S113090000007CC18090190390901A03A0901B03EF
S1130910B0901C038FEF898345E060E0CE0101961F
S11309200E9432036B2D77278827992748E0CE0150
S113093001960E9432036A2D48E0CE0101960E947E
S11309403203692D48E0CE0101960E94320348E04B
S1130950682DCE0101960E9432036DE28DE493E08E
S11309600E942A01EDE4F3E0282D392D4A2D5B2D58
S113097060E070E080E090E008E00E94C219A98184
S11309802A2B208331834283538364837583868334
S113099097838DE28087439A44980E94A9038091AB
S11309A01D03882339F086E08093200388E2809336
S11309B0240306C081E08093200380E28093240313
S11309C0EFECF7E03197F1F700C0000017C18FEFAB
S11309D0898344E060E8CE0101960E94320348E036
S11309E0D7016C91CE0101960E94320364E18DE43B
S11309F093E00E942A01EDE4F3E01082118288E082
S1130A00828313821482158216821782D7018C90F6
S1130A10912C982C882489818083918284E1808719
S1130A2044980E94A90380911D03882321F086E045
S1130A308093200303C081E08093200382E08093AD
S1130A402403EFECF7E03197F1F700C00000D6C0C3
S1130A508FEF898344E060ECCE0101960E9432035B
S1130A6048E0D7016C91CE0101960E94320364E103
S1130A708DE493E00E942A01EDE4F3E010821182F8
S1130A808CE0828313821482158216821782D70126
S1130A908C90912C982C882489818083918284E184
S1130AA0808744980E94A90380911D03882339F00C
S1130AB086E08093200388E28093240306C081E0CB
S1130AC08093200380E280932403EFECF7E03197D6
S1130AD0F1F700C0000092C08FEF89836B01F4E04E
S1130AE0CF0ED11C5B0148E0D6016E916D01CE01A1
S1130AF001960E943203AC14BD04A9F768E28DE4A8
S1130B0093E00E942A01EDE4F3E0D7018D909D90DB
S1130B10AD90BC90282D392D4A2D5B2D60E070E0FE
S1130B2080E090E008E00E94C219A9812A2B20836A
S1130B30318342835383648375838683978388E2F6
S1130B40808744980E94A90380911D03882321F083
S1130B5086E08093200303C081E08093200382E039
S1130B6080932403EFE6F7E13197F1F700C000002A
S1130B7045C080912103882361F0109221038DE404
S1130B8093E00E947F0190912403891708F05AC0D2
S1130B90F0CF8CE694E00E948111882351F38DE418
S1130BA093E00E947F0190E02091240330E02250E2
S1130BB03109821793070CF447C0EDE4F3E0208178
S1130BC0318142815381648175818681978101E0FD
S1130BD00E94C219208331834283538364837583C3
S1130BE08683978332C000E0E4E6F0E08081886089
S1130BF080831F3109F03FC0439A3DC060912403B4
S1130C008DE493E00E942A0181E00E94C71168E00C
S1130C1070E08CE694E00E9448118CE694E00E9417
S1130C207111EBE6F0E0808181608083D89AE8E678
S1130C30F0E080818160808381E08093E7021092FC
S1130C40210397CF01E001C000E0EBE6F0E08081F2
S1130C508E7F8083E8E6F0E080818E7F808310922F
S1130C60E70268EE73E08CE694E00E94481180E0AD
S1130C700E94C711B9CF802F0F90DF91CF911F91A0
S1130C800F91FF90EF90DF90CF90BF90AF909F9027
S1130C908F9008958F929F92AF92BF92CF92DF92DE
S1130CA0EF92FF920F93CF93DF9300D000D0CDB794
S1130CB0DEB760E070E088E10E942904882309F42B
S1130CC0C9C019821A821B821C82BE016F5F7F4FCA
S1130CD08DE493E00E944303EDE4F3E0208131814D
S1130CE04281538164817581868197810F2EF5E25B
S1130CF0EF2EF3E0FF2EF02DD7012C9311963C93A9
S1130D00119712964C93129713965C93139714961B
S1130D106C93149715967C93159716968C93169747
S1130D2017969C930F2EFFE2CF2EF3E0DF2EF02DCB
S1130D30D6012C9311963C93119712964C931297CB
S1130D4013965C93139714966C93149715967C934F
S1130D50159716968C93169717969C930F2EF9E376
S1130D60AF2EF3E0BF2EF02DD5012C9311963C93BA
S1130D70119712964C93129713965C9313971496AB
S1130D806C93149715967C93159716968C931697D7
S1130D9017969C930F2EF3E48F2EF3E09F2EF02DE5
S1130DA0D4012C9311963C93119712964C9312975D
S1130DB013965C93139714966C93149715967C93DF
S1130DC0159716968C93169717969C9301E00E949C
S1130DD0DD1920833183428353836483758386833F
S1130DE0978369EF72E0CF010E944303F40180818D
S1130DF0807F808365EF72E0C4010E944303D501C4
S1130E008C91807F83608C9361EF72E0C5010E94B6
S1130E104303F6018081807F886080836DEE72E0F9
S1130E20C6010E944303D7018C918F608C9369EEB5
S1130E3072E0C7010E94430389819A81AB81BC811E
S1130E408093190390931A03A0931B03B0931C037C
S1130E5081E001C080E00F900F900F900F90DF9120
S1130E60CF910F91FF90EF90DF90CF90BF90AF9014
S1130E709F908F9008958F929F92AF92BF92CF923E
S1130E80DF92EF92FF920F93CF93DF931F92CDB730
S1130E90DEB785E08983EDEFF2E093858285861BDA
S1130EA08287992314F410920803882314F410926F
S1130EB00703BE016F5F7F4F88E00E9429048823E7
S1130EC081F165E073E081E00E942904882359F1EF
S1130ED0BE016F5F7F4F8CE00E942904882329F1B3
S1130EE0EDE4F3E0318142815381648120E070E0DC
S1130EF080E090E008E00E94DD19822E932EA42E5B
S1130F00B52E81E0409105035091060360910703DB
S1130F1070910803481559056A057B0539F080E08E
S1130F2005C080E003C080E001C080E09091080328
S1130F30911103C091E090935E030F90DF91CF91E4
S1130F400F91FF90EF90DF90CF90BF90AF909F9064
S1130F508F9008957F928F929F92AF92BF92CF927B
S1130F60DF92EF92FF920F931F93CF93DF93CDB74E
S1130F70DEB72D970FB6F894DEBF0FBECDBFD82EC7
S1130F804A011092E8020E942904882309F4A0C0AF
S1130F9080911D03882309F487C0EDE4F3E0C08049
S1130FA0318142815381648120E070E080E090E0EF
S1130FB008E00E94DD19822F932FA42FB52F898377
S1130FC09A83AB83BC837C2C2FEF2D83D11083C0F9
S1130FD0B06C89839A83AB83BC837DC048E0F801FD
S1130FE062918F01CE0105960E9432030A151B05FA
S1130FF0A9F78D8178120DC081E08093E802898180
S11310009A81AB81BC81F40180839183A283B383F1
S11310105FC0EDE4F3E0318142815381648120E0DB
S113102070E080E090E008E00E94DD192E833F83A9
S1131030488759876A877B878C879D878E819F81A4
S1131040A885B985880F991FAA1FBB1F89839A8316
S1131050AB83BC831C2D110F2FEF2D83D11005C042
S1131060B06C89839A83AB83BC8348E0F7016291B7
S11310707F01CE0105960E943203EA14FB04A9F70E
S11310808D81181721F0912F9160891321C081E07F
S11310908093E80289819A81AB81BC81F4018083C9
S11310A09183A283B38314C080914D0390914E0326
S11310B0A0914F03B091500380959095A095B09561
S11310C0F40180839183A283B38381E08093E80257
S11310D08091E80209C07E01F5E0EF0EF11CCE011B
S11310E001965C0187017ACF2D960FB6F894DEBF86
S11310F00FBECDBFDF91CF911F910F91FF90EF9065
S1131100DF90CF90BF90AF909F908F907F90089585
S11311103F924F925F926F927F928F929F92AF9283
S1131120BF92CF92DF92EF92FF920F931F93CF93D0
S1131130DF93CDB7DEB729970FB6F894DEBF0FBEA5
S1131140CDBF1AE00F2EF7E03F2EF02D0F2EFDEF4E
S1131150EF2EF2E0FF2EF02D0F2EF5E58F2E982CBA
S1131160FAEAAF2EFAE7BF2EF02D0F2EFDE4CF2EB4
S1131170F3E0DF2EF02D0F2EFAEA4F2E512CF0E67D
S11311806F2EF9EC7F2EF02D4598299A8FE19EE47D
S11311900197F1F700C000000E944A06882309F471
S11311A094C01982EFE1FEE43197F1F700C000002A
S11311B045E153E0BE016F5F7F4F80E00E94AA07C4
S11311C0882309F482C03982BE016F5F7F4F88E0B3
S11311D00E942904882309F478C0F701808291824F
S11311E0A282B382B70181E00E942904882309F412
S11311F06CC0BE016F5F7F4F8CE00E94290488237E
S113120009F463C0F601318142815381648120E095
S113121070E080E090E008E00E94DD192A833B83BF
S11312204C835D836E837F8388879987F7018081F0
S11312309181A281B3812A813B814C815D81821796
S11312409307A407B50709F040C081E08983BE0174
S11312506F5F7F4F88E00E9429048823B1F1F70172
S1131260408E518E628E738E65E173E081E00E9440
S11312702904882351F1BE016F5F7F4F8CE00E94E7
S11312802904882311F1F60131814281538164815B
S113129020E070E080E090E00E94DD192A833B8327
S11312A04C835D836E837F83888799878A819B8142
S11312B0AC81BD81B06CF701408D518D628D738D11
S11312C084179507A607B70729F0115009F05CCFDA
S11312D080E001C081E029960FB6F894DEBF0FBE0E
S11312E0CDBFDF91CF911F910F91FF90EF90DF90D1
S11312F0CF90BF90AF909F908F907F906F905F90B2
S11313004F903F900895EF92FF920F931F93CF93C6
S1131310DF931F92CDB7DEB780E2EDEFF2E0DF019D
S11313201D928A95E9F71AE07F0105E04598299A0C
S1131330EFE1FEE43197F1F700C00000D7015C96BD
S11313401D921D921D921C925F970E944A0688234B
S113135009F495C0198245E153E0BE016F5F7F4FE8
S113136080E00E94AA0781115AC08091F9029091ED
S1131370FA02A091FB02B091FC02F701848F958FD1
S1131380A68FB78F45E153E0BE016F5F7F4F80E0CA
S11313900E94AA0781115AC08091E9029091EA0241
S11313A0A091EB02B091EC02F701848F958FA68F88
S11313B0B78F45E153E0BE016F5F7F4F80E00E942D
S11313C0AA07811145C08091F5029091F602A0917F
S11313D0F702B091F802F701848F958FA68FB78F2B
S11313E045E153E0BE016F5F7F4F80E00E94AA0792
S11313F081112EC08091F1029091F202A091F3022A
S1131400B091F402F701848F958FA68FB78F45E1D1
S113141053E0BE016F5F7F4F80E00E94AA078111F5
S113142017C08091ED029091EE02A091EF02B0916D
S1131430F002F701848F958FA68FB78F45E153E0B3
S1131440BE016F5F7F4F80E00E94AA078823B9F036
S1131450098345E053E0BE016F5F7F4F8CE00E943B
S1131460AA0781113DC0098345E053E0BE016F5FC7
S11314707F4F8CE00E94AA07882331F031C01150BD
S113148009F054CF80E02CC0098345E053E0BE014D
S11314906F5F7F4F8CE00E94AA07811121C00983EE
S11314A045E053E0BE016F5F7F4F8CE00E94AA07C6
S11314B0811116C0098345E053E0BE016F5F7F4F81
S11314C08CE00E94AA0781110BC0098345E053E018
S11314D0BE016F5F7F4F8CE00E94AA07882379F2D8
S11314E00F90DF91CF911F910F91FF90EF9008958E
S11314F08DEF92E008956091F9027091FA02809163
S1131500FB029091FC0208956091F5027091F6023D
S11315108091F7029091F80208956091F102709120
S1131520F2028091F3029091F40208956091ED0229
S11315307091EE028091EF029091F0020895609113
S1131540E9027091EA028091EB029091EC02089515
S11315501F920F920FB60F9211242F933F934F9324
S11315605F936F937F938F939F93AF93BF93EF9307
S1131570FF938091E702882319F1189B28C080917A
S11315802003811119C08DE493E00E947F019091A2
S113159024038917E0F41A9B06C061E08DE493E00C
S11315A00E94360105C060E08DE493E00E9436019C
S11315B081E0809321030BC081508093200307C0F6
S11315C01D9905C080916D03846080936D03FF9124
S11315D0EF91BF91AF919F918F917F916F915F91A7
S11315E04F913F912F910F900FBE0F901F90189520
S11315F01F920F920FB60F9211248F939F93809195
S11316001E0390911F0390938B0080938A00809116
S11316102303882339F080912203811105C0459862
S1131620299A02C0459A29989091230381E0892739
S1131630809323039F918F910F900FBE0F901F9063
S11316401895E0917604E5304CF4EF5FE09376046E
S11316500E2E000CFF0BE958FB4F80830895E09198
S11316607604EE235CF08FEF8E0F809376040E2EBB
S1131670000CFF0BE958FB4F808108958FEF08950C
S11316808FEF8093760408958AED84B92A98289878
S11316902D982E982F98299A2D9A8EEB87B94098D9
S11316A0469A41984298439A4498459A599A82EEA8
S11316B08AB9589A5A9A5B9A599A5D9A5E9A5F9A2D
S11316C081E080937E005D9AEDE6F0E080818061A8
S11316D08083808188608083808184608083EBE65E
S11316E0F0E080818E7F808380818F7D80838FEE88
S11316F0809364000895837099278130910511F0D7
S113170024F406C05D9A429808955D9A429A089519
S11317105D9842980895CF93DF93A82FB0E0FD0120
S1131720B09690962C9141E050E002C0440F551FB2
S11317306A95E2F730E02423352391E02417350736
S113174009F090E060E071E0A0E002C060E0922F58
S1131750CFECD7E02197F1F700C00000208130E002
S113176024233523872F2417350709F08A2F282FA0
S11317708913ECCF6F5F633050F3DF91CF910895FD
S11317802E982F98811102C02E9A01C02F9A8FE4AF
S113179093EC0197F1F700C000002E982F9808955C
S11317A0CF93DF93E4E6F0E080818E7F8083AAE725
S11317B0B0E08C918F778C93CBE7D0E08881806404
S11317C0888387E480937C0080B7816080BF80B782
S11317D0826080BF80B7806480BF87EC90E001970F
S11317E0F1F700C0000080B78F7780BF80B78061B9
S11317F080BF80B7886080BF8C918F778C93808105
S113180081608083DF91CF91089580B7877F80BF07
S1131810EBE7F0E080818F7B808380B7806880BFB6
S113182008951F920F920FB60F9211248F938091F7
S11318306D03826080936D038F910F900FBE0F90A4
S11318401F9018951F920F920FB60F9211242F9389
S11318503F934F935F936F937F938F939F93AF9334
S1131860BF93EF93FF935E9A5F9A299A459A5D9A84
S11318700E94050C87E00E94210BFF91EF91BF911C
S1131880AF919F918F917F916F915F914F913F9114
S11318902F910F900FBE0F901F9018950E94C110AA
S11318A00E94440B0E9464110E94850F0E949102C1
S11318B0789489B18D7180937D0408E514E0C2E6C3
S11318C0D4E00F2EF0E8AF2EF4E0BF2EF02D0F2E53
S11318D0F1ECEF2EF12CF02D0F2EF4E68F2E912C3F
S11318E0F02D33243394432C632C0F2EFDEE5F2E06
S11318F0F02D0F2EFDE6CF2ED12CF02D0E942F0BB4
S11319008F3F09F44AC10E94A71080915B03813084
S113191021F580915C03813011F5712C01C0762C86
S1131920F8018081813171F48181803359F482819D
S1131930803341F48FE893E00E94FD018FE893E047
S11319400E94AC0210925704E8E5F4E01192EC17FF
S1131950FD07E1F710925C0303C0712C01C0712CE8
S1131960772061F20E94BB11811147C080915D0311
S1131970811145C0F501808180FD41C0F70180815E
S113198083FF0AC0F701808183FDFCCF8FE99FE0CC
S11319900197F1F700C00000F401508280917C04AB
S11319A081111AC080915803882369F0109258035A
S11319B01092570382E00E94210B80917D04877F5F
S11319C080937D0415C0F60180818160808383B794
S11319D0817F846083BF03C083B7817F83BF83B764
S11319E0816083BF7894889583B78E7F83BFF89492
S11319F0F60180818E7F808302C00E94A4117894B6
S1131A00000080917C04811106C08FE39CE901975A
S1131A10F1F700C00000F89480916D0380935D039A
S1131A2010926D03789480915D03882309F466CF46
S1131A3081FF7BC064E089E00E948B0B882359F00E
S1131A4080917C04811107C00E94210BEEE7F4E031
S1131A5080818E7F808362E089E00E948B0B8823E3
S1131A6069F080917D0482FD03C084E00E94210B13
S1131A7080917D04846080937D040CC080917D04FA
S1131A8082FF03C085E00E94210B80917D048B7F3F
S1131A9080937D0463E089E00E948B0B882339F1F5
S1131AA080917D0483FD1DC083E00E94210B809101
S1131AB07C04823011F440925703EFE7F4E0808114
S1131AC08B7F808380818D7F8083809159038130D7
S1131AD041F48FE893E00E94FD018FE893E00E94B7
S1131AE0AC0280917D04886080937D0419C080914C
S1131AF07C04813021F090915703992319F040928E
S1131B00580309C0811107C080917D0483FF03C07D
S1131B1082E00E94210B80917D04877F80937D0465
S1131B2080915D038D7F80935D0380915D0382FFCF
S1131B3013C09FEBE4EDF1E09150E040F040E1F799
S1131B4000C000001D9903C0832D0E94210B8091C9
S1131B505D038B7F80935D0380915D0385FF08C0E7
S1131B6086E00E94210B80915D038F7D80935D034D
S1131B7080915D0386FF08C089E00E94210B80915B
S1131B805D038F7B80935D0380915D0388230CF05C
S1131B90ACCE8F7780935D03A4CE80915B038130BC
S1131BA009F0E0CE80915C03813009F4B8CEDACE3E
S1131BB000000895EFE7F4E080818B7F808383E069
S1131BC080938204089588E7809382040895109294
S1131BD07C040E948B1308955E9A5E988FE39CE9BF
S1131BE00197F1F700C000005E9A08955F988FE3B3
S1131BF09CE90197F1F700C000005F9A08950E94E4
S1131C00E8148091800482FF08C0E0E8F4E0808159
S1131C108B7F808380E00E94210B0895EF92FF92D6
S1131C200F931F93CF93DF9300D000D01F92CDB7B3
S1131C30DEB7299AE2E8F4E080818150808388232A
S1131C4021F080915E03882341F010927C040E946D
S1131C508B1381E080935A034CC18091800486FDEC
S1131C60DEC0E5E9F4E080818F7780838FE893E03C
S1131C700E94BB018FE893E00E94AC02E6E6F3E029
S1131C809381818198170CF0C3C080916803181662
S1131C900CF0BEC0E5E9F4E08081816080830E949D
S1131CA0050C0E94D50002E814E0D80113968C9329
S1131CB00E94D00BE6E6F3E0D80113968C91908154
S1131CC0891B938198170CF0AAC0B82FB91BE9E9B6
S1131CD0F4E08083B183E5E9F4E08081826080836D
S1131CE0B4300CF48AC05E9A80918C0490918D0477
S1131CF004968436910528F490938D0480938C0483
S1131D0014C0E2E8F4E01386128684859585A685DE
S1131D10B7850196A11DB11D84879587A687B787CE
S1131D20E0E8F4E080818061808360918C0486EE39
S1131D3090E00E94361AEFE1FEE43197F1F700C01B
S1131D4000001BE00E944A06882379F11D828FE17E
S1131D509EE40197F1F700C00000AE014F5F5F4FB2
S1131D60BE016B5F7F4F80E00E94AA0780935F03F0
S1131D70811121C00E94780A7C010E947B0AD7014C
S1131D805C966D937D938D939C935F97AE014F5FAB
S1131D905F4FBE016B5F7F4F80E00E94AA07809374
S1131DA05F03882309F443C006C0115059F680919B
S1131DB05F038823F1F060E070E084E090E00E942B
S1131DC03B07882389F0E6E6F3E083818C5F838315
S1131DD088E7809382048FE893E00E94BB018FE838
S1131DE093E00E94AC0205C0E6E6F3E085818F5FD4
S1131DF085835E98299A459A12C0E5E9F4E08081CA
S1131E008D7F8083E6E6F3E084818F5F848307C05F
S1131E1081E080936C0310927C040E948B13E5E9AB
S1131E20F4E080818068808310925A0362C00E942B
S1131E30780A7C010E949F0AF701648F758F868F50
S1131E40978FAE014F5F5F4FBE016B5F7F4F80E0A6
S1131E500E94AA0780935F038111ADCF0E94780A84
S1131E607C010E94840AD7015C966D937D938D93C7
S1131E709C935F97AE014F5F5F4FBE016B5F7F4FD7
S1131E8080E00E94AA0780935F03811194CF0E948F
S1131E90780A7C010E948D0AF701648F758F868F02
S1131EA0978FAE014F5F5F4FBE016B5F7F4F80E046
S1131EB00E94AA0780935F0381117DCF0E94780A54
S1131EC07C010E94960AD7015C966D937D938D9355
S1131ED09C935F97AE014F5F5F4FBE016B5F7F4F77
S1131EE080E00E94AA0780935F03882309F45DCFF2
S1131EF062CF0F900F900F900F900F90DF91CF91C2
S1131F001F910F91FF90EF900895EF92FF920F931E
S1131F101F93CF93DF93109295041092960410921E
S1131F2097041092980410927E0410927F041092E9
S1131F30800410928104E0E8F4E08081886080836A
S1131F40E2E8F4E017821682118214821582118667
S1131F50108678948EE894E00E94E11087E00E9455
S1131F6087002FEF30E782E0215030408040E1F7D6
S1131F7000C0000087E00E9487008330924050F147
S1131F800E948309882331F10E94780AFC0180852C
S1131F90833001F5E2E8F4E08FEF828B118A108A36
S1131FA01486158616861786E0E8F4E08081806141
S1131FB080838EE894E00E94E1105E985F98FFEFC2
S1131FC029E638E1F15020403040E1F700C000003C
S1131FD05F9A5E9A80E590E00E94261A8C0182E561
S1131FE090E00E94261A7C0180E890E00E941E1A6C
S1131FF080936103C82FD0E0CC0FDD1FCE018E5734
S11320009F4F0E94261A9093630380936203CE012C
S11320108C549F4F0E94261A9093890480938804BD
S113202086EE90E00E941E1A90E08436910528F412
S113203090938D0480938C0409C010928D041092A7
S11320408C0460E086EE90E00E94361A0F3F1F4F2A
S113205009F049C0EF20E09409F045C047E050E0A2
S113206060E070E08EE894E00E940E1AC2E8D4E0CA
S11320708FEF9FEF998B888B8FEF9FEFDC018C871D
S11320809D87AE87BF871F821E82109261031092C4
S113209063031092620347E050E060E070E08EE872
S11320A094E00E942C1A60EA70E080E590E00E94BF
S11320B0441A60E273E082E590E00E94441A609161
S11320C0610380E890E00E94361A6E817F8184EB80
S11320D090E00E94441A609162037091630382E865
S11320E090E00E94441AF8945D985F988FE05F989E
S11320F05E9AEFEFF4E32CE0E150F0402040E1F78A
S113210000C000005F9A5E983FEF94E3ECE031502A
S11321109040E040E1F700C00000815041F75E9A32
S11321205F9A0E9400130E94400BDA9AE8E6F0E0FE
S11321308081846080838FEF0E94C00B10927C04A6
S1132140DF91CF911F910F91FF90EF90089590E050
S1132150DC01AA0FBB1FA80FB91F80917C049EE16C
S1132160899FA00DB11D1124A050BF4F1196ED9170
S1132170FC9112978C9180937C04099580917C0446
S11321800895E1E6F0E080E8808310820895F894F1
S1132190A89594B7977F94BFE0E6F0E098E1908328
S11321A08064808378940895F894A89584B7877F91
S11321B084BFE0E6F0E080818061808310827894BF
S11321C00895CF93DF93EC018091800484FF19C0BC
S11321D047E050E060E070E0CE010E942C1A60916C
S11321E08804709189048091610390E0880F991F9D
S11321F08C549F4F0E94441AE0E8F4E080818F7E63
S1132200808347E050E060E070E0CE010E940E1A47
S1132210809160038150823030F560916203709147
S113222063038091610390E0880F991F8E579F4F3D
S11322300E94441A6091880470918904809161031A
S113224090E0880F991F8C549F4F0E94441A8091EC
S11322506003823031F46091610380E890E00E9471
S1132260361A10926003DF91CF9108951F920F9256
S11322700FB60F9211248F9380916D038062809327
S11322806D03A8958F910F900FBE0F901F90189516
S1132290DC01EEE6F0E080818E7F808314968C91E1
S11322A014978D7F8E7F14968C93149711967C933C
S11322B06E9313961C921E92129716BC81E085BBF6
S11322C080818160808308956FEF70E081E794E0FE
S11322D00E9448116FEF70E08CE694E00E94481170
S11322E00895DC01EEE6F0E090819E7F90831496E1
S11322F08C911497826014968C9380818160808382
S11323000895FC01848181700895FC01892B91F06A
S1132310848181FF0FC0828193810196938382839C
S1132320208131818217930728F0138212828481DD
S113233081608483089581E794E00E9485118CE68E
S113234094E00E94851108958091750480FF07C070
S1132350E5E7F4E08E7F808387E00E94210B809183
S1132360700480FF07C0E0E7F4E08E7F808388E09C
S11323700E94210B08958091750481FD06C080910F
S1132380700486958170819508958FEF0895882350
S113239069F0E4E6F0E080818F7D808384E085BD90
S11323A016BC81E085BB80936E000895EEE6F0E0F4
S11323B080818E7F8083E4E6F0E080818062808388
S11323C008951F920F920FB60F9211242F933F93EB
S11323D04F935F936F937F938F939F93AF93BF9329
S11323E0EF93FF930E949B11FF91EF91BF91AF91E7
S11323F09F918F917F916F915F914F913F912F9119
S11324000F900FBE0F901F901895CF93DF9363E04A
S113241089E00E948B0B882369F080917D0483FD01
S113242003C083E00E94210B80917D048860809327
S11324307D040CC080917D0483FF03C082E00E9470
S1132440210B80917D04877F80937D041092570334
S113245068EE73E081E794E00E94481168EE73E04F
S11324608CE694E00E94481180E00E94C711299AEA
S1132470459ACBE6D0E08881897F88835E9A80E0A4
S113248090E00E947B0B5D9888818F7D88834198C2
S11324908FEC97E00197F1F700C00000429A9FEF9C
S11324A020E782E0915020408040E1F700C0000026
S11324B042985A9A80917E0484FF13C080918A04C2
S11324C090918B04803D27E0920730F0EEE7F4E032
S11324D080818860808305C0019690938B048093EB
S11324E08A0487E00E948700873421E0920770F411
S11324F080918704853030F0EEE7F4E080818860D5
S1132500808321C08F5F809387041DC0109287044D
S113251085369140B0F480918604853070F08091C6
S11325207E0484FD10C0EEE7F4E080818061808346
S113253010928B0410928A0406C08F5F80938604E5
S113254002C01092860480917E0484FF02C05F98CA
S113255001C05F9A0E94D500809385045D9A682F1C
S113256070E080E090E00E948B18C1E020E030E051
S113257040EA51E40E94E31718160CF4C0E0EEE7B9
S1132580F4E08081C0FB86F98083808184FD08C0EB
S113259080917E0486FF04C087E00E94C71002C0B9
S11325A00E94D41063E089E00E948B0B882331F0F1
S11325B080917D04886080937D0405C080917D04B2
S11325C0877F80937D04E4E6F0E080818D7F8083C3
S11325D00E9491020E949A028091800483FF05C0A8
S11325E0E0E8F4E08081877F8083EDE6F0E080819D
S11325F080618083808188608083DF91CF9108959A
S11326000E940512089510925903EEE7F4E08081C8
S11326108F7D80838091800480FD7AC080917E04C8
S113262083FD76C00E94A6025D98EDE6F0E080810D
S11326308F7E8083808184608083EBE6F0E08081FC
S113264080628083D89AE8E6F0E0808181608083AC
S11326505E9A5F9AE2E8F4E0468157814F5F5F4FEC
S1132660578346839A013695279536952795ABE788
S1132670B4E10E94B3199695879564E6689F90012A
S1132680699F300D11244217530711F581E080939F
S1132690600380916203909163030196883223E280
S11326A0920728F4909363038093620311C01092FD
S11326B0630310926203809161038E5F823318F486
S11326C08093610302C01092610382E080936003EF
S11326D0483E534070F0E2E8F4E0178216828089A5
S11326E091890196918B808BE0E8F4E08081806190
S11326F08083419A81E00E94C71164EF70E081E712
S113270094E00E94481181E794E00E9471110895B9
S113271010927C0408950E94050C8FEF0E94C00B58
S1132720EFE7F4E080818E7F808310925B030E9448
S113273005120895299A5F9A5E9A86E00E94C7104E
S113274081E00E94C71160ED73E081E794E00E948C
S1132750481181E794E00E94711183E080937C0426
S113276010925B030895EEE7F4E08081816080833A
S113277080818062808341988FEC97E00197F1F724
S113278000C00000429A9FEF20E782E09150204071
S11327908040E1F700C0000042980E949A13089517
S11327A0EEE7F4E080818160808380818F7D808387
S11327B0808184FF03C080818860808341988FEC8E
S11327C097E00197F1F700C00000429A9FEF20E7DD
S11327D082E0915020408040E1F700C00000429820
S11327E00E949A1308950F931F93CF93DF93EFE7FB
S11327F0F4E080818460808381E080935B031092A5
S1132800590310925E030E949A0280917E0483FD14
S1132810D2C05E9A5F9AEDE6F0E080818B7F808380
S113282080818F7E8083C0E007C08FE097E20197AC
S1132830F1F700C00000CF5F0E948309811103C03B
S1132840C33099F7ADC0C33008F0AAC0EFE7F4E095
S1132850808182608083299A8EE894E00E94E1104E
S11328600E94780AFC0180858F73EEE7F4E0908182
S11328709D7F9083833009F442C0909194049F3FDC
S1132880C1F49091840489130FC0E2E8F4E09181CB
S11328909F5F91839230C0F080939404E0E8F4E069
S11328A080818061808310C0E2E8F4E08283118239
S11328B00BC090938404891739F0EEE7F4E080812B
S11328C08260808390E012C00E94780AFC018385B4
S11328D0181654F40E94780A21E0FC018285181627
S11328E00CF020E0922F01C090E09170E0E8F4E059
S11328F080818F7B8083992309F460C015C0E2E84E
S1132900F4E0118283E0828382898F3F41F08FEF6C
S113291080939404E0E8F4E0808180618083E0E8BF
S1132920F4E08081806480830E94780AC6E6D3E064
S1132930FC0182858A830E94780AFC01838589834D
S11329401B821D821C821E825D98FFEF24E38CE0B3
S1132950F15020408040E1F700C000000E94D50003
S113296002E814E0F801838388835E9880E00E9483
S1132970C00BFFEF20E782E0F15020408040E1F7F8
S113298000C00000EFE7F4E08081816080830E9452
S1132990D00B88E7F801808386E00E94C71013C03B
S11329A0EFE7F4E080818D7F8083EEE7F4E08081BF
S11329B08260808303C010927C0405C00E949A1335
S11329C081E080935903DF91CF911F910F91089576
S11329D00F931F93CF93DF93CDB7DEB7EC970FB66A
S11329E0F894DEBF0FBECDBF81E080936503809372
S11329F09B04E8E5F4E001900020E9F73197E855FD
S1132A00F4402E2F10928F03EE2309F48FC180918E
S1132A105804813109F04DC010925B0489E594E0BB
S1132A200E94F016613231F4E0E8F4E080818460C1
S1132A3080830BC0623221F480E00E94C00B05C089
S1132A40633219F48FEF0E94C00B809158048131D6
S1132A5009F580915904803301F580915A0480333B
S1132A60F9F45D982FEF80E792E021508040904088
S1132A70E1F700C000000E94D50080938504809394
S1132A8066035D9ACE0101960E94FD019E012F5FAF
S1132A903F4F08C020E030E005C020E030E002C035
S1132AA020E030E010929B0480916503811151C1B4
S1132AB065C1FF27E95AFB4FE0818E2F90E0FC01AE
S1132AC0E456F109E431F10508F02DC1EC5AFF4F49
S1132AD00C94AD1928E731E036C1233049F5109242
S1132AE05A0467ED72E088E594E00E94051A892B88
S1132AF009F04AC186E00E9487008C0180E590E0DD
S1132B000E94261A8017910720F4B801681B790BDC
S1132B1002C061E070E082E590E00E94441A60E83F
S1132B2071E08FE893E00E94371720E030E003C1A2
S1132B300E94BB00BC018FE893E00E94CA1720E00A
S1132B4030E0F9C02330E1F410925A0467ED72E0EA
S1132B5088E594E00E94051A892B09F018C186E0E3
S1132B600E948700BC0180E590E00E94441A60E85E
S1132B7071E08FE893E00E94371720E030E0DBC07B
S1132B800E94C800BC018FE893E00E94CA1720E0AD
S1132B9030E0D1C00E94780A8C01FC01448D558D2F
S1132BA0668D778DCE0101960E947E17BE016F5F00
S1132BB07F4F8FE893E00E94461764ED72E08FE840
S1132BC093E00E944617F801408D518D628D738DFC
S1132BD0CE0101960E947E17BE016F5F7F4F8FE882
S1132BE093E00E94461764ED72E08FE893E00E9440
S1132BF04617F8014489558966897789CE0101967B
S1132C000E947E17BE016F5F7F4F8FE893E00E94A2
S1132C10461764ED72E08FE893E00E944617F801CE
S1132C204089518962897389CE0101960E947E1779
S1132C30BE016F5F7F4F8FE893E00E94461764EDFB
S1132C4072E08FE893E00E944617F80144855585A9
S1132C5066857785CE0101960E947E17BE016F5F5F
S1132C607F4F8FE893E00E94461764ED72E08FE88F
S1132C7093E00E944617F80140855185628573856B
S1132C80CE0101960E947E17BE016F5F7F4F8FE8D1
S1132C9093E00E94461764ED72E08FE893E00E948F
S1132CA04617F8014481558166817781CE010196EA
S1132CB00E947E1764ED72E08FE893E00E9446174D
S1132CC0F8014081518162817381CE0101960E9495
S1132CD07E17BE016F5F7F4F8FE893E00E94461717
S1132CE020E030E028C00E948808299A20E030E0E3
S1132CF022C0E0E8F4E08081826080836AED72E0C3
S1132D008FE893E00E94371720E030E014C00E945F
S1132D10D50080938504682F8FE893E00E9469179B
S1132D2020E030E008C01092650328C010926503CB
S1132D3025C023E831E0809165038823F9F0809170
S1132D409B04882331F0E0E8F4E080818160808393
S1132D505D989091800492FD11C02115310559F4BC
S1132D6064ED72E08FE893E00E9446178FE893E0E9
S1132D700E94AC0203C0C9010E94AC020E949A02E4
S1132D8009C02BE931E0DFCF20E030E0DCCF20E0E8
S1132D9030E0D9CFEC960FB6F894DEBF0FBECDBFAE
S1132DA0DF91CF911F910F910895982F80ED890F96
S1132DB08A3040F08FEB890F863018F489EC890F44
S1132DC0089580E00895FC012081222339F0319692
S1132DD080E08F5F91919111FCCF089580E0089578
S1132DE0AF92BF92CF92DF92EF92FF920F931F9315
S1132DF0CF93DF93D82FC92F0E94E316A82E8823E0
S1132E0031F10D2F1C2FC82FD0E02197CC0FDD1FDF
S1132E10CC0FDD1FC12CD12C7601B12CF80181918E
S1132E208F010E94D51690E0A0E0B0E00C2E04C003
S1132E30880F991FAA1FBB1F0A94D2F7C80ED91E68
S1132E40EA1EFB1EB3942497AB10E8CF03C0C12C39
S1132E50D12C7601C701B601DF91CF911F910F915B
S1132E60FF90EF90DF90CF90BF90AF900895FB015B
S1132E702081222341F031960196DC0111972C9395
S1132E8021912111F9CFFC0110820895CF93DF9392
S1132E90FC018081882339F0CF010196FC01019661
S1132EA020812111FBCFDB018C91882341F0119605
S1132EB03196EF01219788838D918111F9CF10828A
S1132EC0DF91CF9108958A3010F4805D0895895C74
S1132ED008951F93CF93DF93EC01162F862F8295CD
S1132EE08F700E9463178883812F8F700E946317ED
S1132EF089831A82DF91CF911F9108950F931F93B5
S1132F00CF93DF9300D000D0CDB7DEB78C014983D7
S1132F105A836B837C836C810E9469176B81C8011F
S1132F2002960E9469176A81C80104960E94691773
S1132F306981C80106960E9469170F900F900F903F
S1132F400F90DF91CF911F910F910895EF92FF920F
S1132F500F931F93CF93DF934423A9F08B01C82FC2
S1132F60D92F4150E42EF12C8FEFE81AF80AE60E1F
S1132F70F71EF80161918F01CE010E946917229614
S1132F800E151F05B1F7DF91CF911F910F91FF909F
S1132F90EF9008950F931F93CF93DF9300D0CDB795
S1132FA0DEB78C017A8369836A810E94691769811B
S1132FB0C80102960E9469170F900F90DF91CF917C
S1132FC01F910F9108950E94C61808F481E0089596
S1132FD00E94FC170C9401190E94FA1858F00E94E0
S1132FE0F31840F029F45F3F29F00C94EA185111CA
S1132FF00C9435190C94F0180E94121968F3992353
S1133000B1F3552391F3951B550BBB27AA276217E0
S11330107307840738F09F5F5F4F220F331F441FED
S1133020AA1FA9F335D00E2E3AF0E0E832D0915021
S11330305040E695001CCAF72BD0FE2F29D0660F0E
S1133040771F881FBB1F261737074807AB07B0E851
S113305009F0BB0B802DBF01FF2793585F4F3AF057
S11330609E3F510578F00C94EA180C9435195F3F93
S1133070E4F3983ED4F3869577956795B795F795DD
S11330809F5FC9F7880F911D9695879597F90895C5
S1133090E1E0660F771F881FBB1F62177307840761
S11330A0BA0720F0621B730B840BBA0BEE1F88F770
S11330B0E09508950E941A1988F09F5798F0B92F47
S11330C09927B751B0F0E1F0660F771F881F991F59
S11330D01AF0BA95C9F714C0B13091F00E943419AE
S11330E0B1E008950C943419672F782F8827B85FBE
S11330F039F0B93FCCF3869577956795B395D9F7B1
S11331003EF490958095709561957F4F8F4F9F4FBA
S11331100895E89409C097FB3EF4909580957095C6
S113312061957F4F8F4F9F4F9923A9F0F92F96E90F
S1133130BB279395F695879577956795B795F11184
S1133140F8CFFAF4BB0F11F460FF1BC06F5F7F4F21
S11331508F4F9F4F16C0882311F096E911C0772333
S113316021F09EE8872F762F05C0662371F096E83C
S1133170862F70E060E02AF09A95660F771F881F0B
S1133180DAF7880F9695879597F90895990F0008AF
S1133190550FAA0BE0E8FEEF16161706E807F90725
S11331A0C0F012161306E407F50798F0621B730BC0
S11331B0840B950B39F40A2661F0232B242B252B41
S11331C021F408950A2609F4A140A6958FEF811DE4
S11331D0811D089597F99F6780E870E060E0089585
S11331E09FEF80EC089500240A941616170618061B
S11331F00906089500240A941216130614060506F7
S11332000895092E0394000C11F4882352F0BB0F87
S113321040F4BF2B11F460FF04C06F5F7F4F8F4FEA
S11332209F4F089557FD9058440F551F59F05F3F25
S113323071F04795880F97FB991F61F09F3F79F0D4
S113324087950895121613061406551FF2CF469556
S1133250F1DF08C0161617061806991FF1CF8695D8
S11332607105610508940895E894BB2766277727BC
S1133270CB0197F908950E94C61808F48FEF0895BA
S11332800E9453190C9401190E94F31838F00E94FB
S1133290FA1820F0952311F00C94EA180C94F01805
S11332A011240C9435190E94121970F3959FC1F3DF
S11332B0950F50E0551F629FF001729FBB27F00DE0
S11332C0B11D639FAA27F00DB11DAA1F649F662735
S11332D0B00DA11D661F829F2227B00DA11D621F84
S11332E0739FB00DA11D621F839FA00D611D221F3E
S11332F0749F3327A00D611D231F849F600D211D22
S1133300822F762F6A2F11249F5750409AF0F1F0A4
S113331088234AF0EE0FFF1FBB1F661F771F881F0D
S113332091505040A9F79E3F510580F00C94EA1843
S11333300C9435195F3FE4F3983ED4F38695779562
S11333406795B795F795E7959F5FC1F7FE2B880FB3
S1133350911D9695879597F90895EE0FFF1F059097
S1133360F491E02D0994A29FB001B39FC001A39FE3
S1133370700D811D1124911DB29F700D811D1124AA
S1133380911D08950F93083090F0982F872F762F72
S1133390652F542F432F322F22270850F4CF220FAA
S11333A0331F441F551F661F771F881F991F0A95D7
S11333B0B2F70F91089597FB10F8169400080F9335
S11333C0083098F00850232F342F452F562F672F9D
S11333D0782F892F902DF4CF05949795879577951D
S11333E0679557954795379527950A95AAF70F91AD
S11333F008950024A7FD00942A17300540055005C0
S113340060057005800590050895FB01DC018D9130
S1133410019080190110D9F3990B0895DC01CB01B7
S1133420FC01F999FECF06C0F2BDE1BDF89A3196D0
S113343000B40D9241505040B8F70895F999FECF69
S113344092BD81BDF89A992780B50895A8E1B0E0AE
S113345042E050E00C94101ADC01CB0103C02D9122
S11334600E94371A41505040D0F70895262FF999F9
S1133470FECF1FBA92BD81BD20BD0FB6F894FA9A53
S1133480F99A0FBE019608950E94361A272F0C94BC
S1093490371AF894FFCF87
S113349601031300D80D02F31300D80D00D80D0054
S11334A6D80D00EC0D00D80D00D80D00FF0D01D885
S11334B60D01B31301D80D01D80D00001301D80D69
S11334C601D80D00D01301D80D01D80D02D80D0274
S11334D6D80D02E30D02DA0D02D80D02D80D020E44
S11334E60E008B1302E70D02D80D00001303D80D4E
S11334F600001300001303D80D03D80D03F60D00C6
S1133506001303D80D03D80D56312E32330D0A009D
S11335164F4B004D617220203820323032320D0A72
S113352631393A30373A33360D0A000D0A3D3D3DFE
S11335363D3D3D3D3D3D3D3D3D2048656C70204D46
S1133546656E750D0A0D0A6409646973706C617998
S113355620462F5720636F6D70696C652064617413
S1133566650D0A3031672C6709646F2F64697370BF
S11335766C617920776569676874206761696E2074
S113358663616C6962726174696F6E0D0A680964BD
S11335966973706C617920746869732068656C70EE
S11335A6206D656E750D0A30316F2C6F09646F2FAF
S11335B6646973706C617920776569676874206FD4
S11335C666667365742063616C6962726174696F9F
S11335D66E0D0A7209646973706C6179206C61738B
S11335E674207265616420656B6579206461746119
S11335F60D0A7509756E6C6F636B2073657269616C
S11336066C20636F6D6D756E69636174696F6E733B
S1133616206D6F64650D0A7609646973706C61794F
S1133626206669726D776172652076657273696F5B
S11336366E0D0A7709646973706C61792077656920
S1133646676874206D6561737572656D656E740D5A
S11336560A0D0A3D3D3D3D3D3D3D3D3D3D3D3D0D56
S11336660A0D0A000D0A00303100554E4C4F434BEB
S107367645440000C3
S9030000FC
