S00C00004E47434D2E73726563F3
S11300000C9468000C9485000C9485000C94820A6E
S11300100C9485000C94EB0B0C94E5100C94850067
S11300200C9485000C9485000C9485000C94850038
S11300300C94D20A0C9485000C9485000C948500D1
S11300400C9490110C9485000C94CB020C949302A4
S11300500C9485000C941F010C9485000C94FC0BEB
S11300600C9485000C9485005A044405CB05CB05FB
S1130070CB05CB052D04CB05BF04CB05CB05CB05A8
S11300800005CB05CB05CB05CB05CB05CB05CB05B7
S1130090CB05CB05CB05CB052D04CB05CB05CB057B
S11300A0CB05CB05CB051C044F1649164916231561
S11300B07716491649164916491649164916581508
S11300C0491649168015291649162F1620153D166E
S11300D011241FBECFEFD4E0DEBFCDBF13E0A0E0FC
S11300E0B1E0E2E0F4E302C005900D92AE30B10756
S11300F0D9F724E0AEE0B3E001C01D92AB3BB207F8
S1130100E1F70E94280C0C94FF190C940000A4E65B
S1130110B0E09C919E7F9C93E7ECF0E03197F1F77F
S113012000C00000806480937C0083B7817F82607C
S113013083BFEAE7F0E080E8808380818860808381
S1130140808183608083808180648083F89483B716
S1130150816083BF7894889583B78E7F83BF7894BA
S1130160809178002091790010829C9191609C93F9
S113017090E0922B089582E590E00E94DC199C01A6
S11301802F503109213F334010F080E891E0089569
S113019080E590E00E94DC199C012150310920384F
S11301A0334010F080E090E00895CF92DF92EF9218
S11301B0FF920F931F93CF93DF930E94C8008C018B
S11301C00E94BB00EC0186E00E9487000817190713
S11301D058F5BC01601B710B80E090E00E943F1851
S11301E06B017C01BE0180E090E00E943F189B01FE
S11301F0AC01C701B6010E949E1720E030E048EC34
S113020052E40E94F6180E941018C62F80E090E075
S11302100E943F1820E030E048EC52E40E94F118BC
S113022018161CF4C4E601C0C0E08C2FDF91CF91F6
S11302301F910F91FF90EF90DF90CF9008951F9240
S11302400F920FB60F92112400000F900FBE0F9063
S11302501F901895FC01618710861082118212820A
S11302601382148215821682178208950F93CF93F6
S1130270FC01B62F80859185891720F1915041E0CA
S113028050E002C0440F551F9A95E2F7952F990F3D
S1130290990B2081242331813523428149235381C1
S11302A0592364816923758179238681A781C1E0FB
S11302B089239A23A0E00E94AF1909F4C0E0C093F7
S11302C00E0304C010920E038F5F8087208131815A
S11302D042815381648175818681978101E00E9406
S11302E07819B22BB083318342835383648375833B
S11302F08683978380910E03CF910F910895FC011B
S1130300808508950F931F93FC01A085AA2309F10A
S11303100A2F10E00150110921E030E040E050E0E4
S113032060E070E080E090E00E947819B0812B23B7
S1130330B1813B23B2814B23B3815B23B4816B2313
S1130340B5817B23B6818B23B7819B23A150A087E2
S113035008C020E030E040E050E060E070E080E081
S113036090E0E1E0A0E00E94AF1909F4E0E08E2FF4
S11303701F910F910895CF93DF93EC01E8E9F3E027
S113038087E0DF011D928A95E9F7809193038083CA
S113039047E0BF01CE010E945C1769EE72E0CE0116
S11303A00E94FC16DF91CF910895CF92DF92EF92D5
S11303B0FF920F931F93CF93DF93CDB7DEB72F97A1
S11303C00FB6F894DEBF0FBECDBF7C010FE913E07A
S11303D085E1D8011D928A95E9F785E0F8018787C0
S11303E080E5808781E58183E3EAF4E08081D801B8
S11303F051968C935197818112968C9312970F2E5C
S1130400F7EACF2EF4E0DF2EF02DF6018289509624
S11304108C935097838113968C9383EB94E00E9482
S11304209010D60150968D919C9151971C964D91A8
S11304305D916D917C911F97F801448344275F700F
S1130440282F2295207F252B2583929582958F70C6
S113045089279F708927868347E06DEA73E0C70187
S11304600E945C1769EE72E0C7010E94FC1647E027
S113047066EA73E0CE0101960E945C17BE016F5FCD
S11304807F4FC7010E94FC1669EE72E0C7010E940B
S1130490FC1647E0B801CE0101960E945C17BE012C
S11304A06F5F7F4FC7010E94FC1669EE72E0C701BF
S11304B00E94FC162F960FB6F894DEBF0FBECDBF78
S11304C0DF91CF911F910F91FF90EF90DF90CF902C
S11304D008951092C50083E38093C40086E080935E
S11304E0C200089510927C0410927D048091C6008D
S11304F0E1ECF0E08081806980830895E1ECF0E034
S113050080818F76808308959093100380930F03E6
S1130510892B41F0E1ECF0E0808188608083808168
S11305208062808308951F920F920FB60F92112458
S11305308F939F93EF93FF93E0910F03F091100338
S11305408081882351F0CF0101969093100380930A
S11305500F0380818093C60015C0E1ECF0E0808138
S11305608F7D80838081877F80838091A50481FF34
S113057009C0E5EAF4E080818E7F808380818D7FED
S113058080835D9AFF91EF919F918F910F900FBEA1
S11305900F901F9018951F920F920FB60F9211246F
S11305A08F939F93EF93FF938091C60090917C0467
S11305B0933128F58D30B1F4E0917C0481E08E0F05
S11305C080937C04F0E0E358FB4F10828091970302
S11305D080648093970380918503813091F48093A4
S11305E086030FC08A3069F0E0917C0491E09E0F8D
S11305F090937C04F0E0E358FB4F808302C0109298
S11306007C04FF91EF919F918F910F900FBE0F90FB
S11306101F901895FC018081682760838DE190818B
S1130620992324F4990F9827908302C0990F9083FB
S11306304150A9F70895CF92DF92EF92FF920F9362
S11306401F93CF93DF93FC01EB01C12C10E00F2E1D
S1130650FFE1EF2EF12CF02DDD24D394D701A11B63
S1130660B109AA0FBB1F23E030E040E050E060E096
S113067070E080E090E00A2F0E947819B0812B236B
S1130680B1813B23B2814B23B3815B23B4816B23C0
S1130690B5817B230681B78180239B230A2F0E9487
S11306A0931988819981AA81BB81880F991FAA1FF8
S11306B0BB1F88839983AA83BB83322F3D7F31F488
S11306C0816088839983AA83BB8303C0233009F0A4
S11306D0C3941F5F8D2D92E09C1508F480E088235D
S11306E031F08D2D103208F080E08111B7CF8C2DC0
S11306F0DF91CF911F910F91FF90EF90DF90CF90FA
S113070008951F93CF93DF93E4E6F0E08081877F21
S11307108083E1E8F0E0108210928000109285005E
S113072010928400AAE8B0E080E892E511969C93C8
S11307308E938D919C9180589E4F90934903809302
S1130740480384E086BB80936F0081E080838093BC
S11307504D0310924C0310924B03459A2998CAE812
S1130760D0E011E083B7817F83BF83B7816083BF0B
S1130770889583B78E7F83BF80914D03882349F08A
S11307808881998180589E4F9093490380934803B0
S1130790E9CF87E793E00E947F01811116C0809121
S11307A04C03882341F0459A2998EFE6F0E08081D4
S11307B08B7F808322C088819981965F90934903BF
S11307C08093480310934C03CDCF87E793E00E94B6
S11307D08201882349F08881998180589A4F9093A7
S11307E0490380934803BECF8881998180589C4FE8
S11307F09093490380934803B5CFDF91CF911F9124
S113080008958F929F92AF92BF92CF92DF92EF9210
S1130810FF920F931F93CF93DF931F92CDB7DEB751
S1130820182F7B0190E08032910508F0B4C1FC01DF
S1130830EC5CFF4F0C9463194398459A299880E423
S113084080934E03449A81E080934A038FE39FE1AF
S11308500197F1F700C00000A9C165E087E793E0C4
S11308600E942A01E7E7F3E01083118212821382C7
S1130870148215821682178285E0808743984498F3
S113088080E480934E030E948103183139F487E099
S113089080934A0381E08093470305C01092470385
S11308A082E080934A03AFECB7E01197F1F700C000
S11308B000007CC18090430390904403A0904503C2
S11308C0B09046038FEF898345E060E0CE01019646
S11308D00E940A036B2D77278827992748E0CE01C9
S11308E001960E940A036A2D48E0CE0101960E94F7
S11308F00A03692D48E0CE0101960E940A0348E0EC
S1130900682DCE0101960E940A036DE287E793E009
S11309100E942A01E7E7F3E0282D392D4A2D5B2DAB
S113092060E070E080E090E008E00E947819A9811E
S11309302A2B208331834283538364837583868384
S113094097838DE28087439A44980E948103809123
S11309504703882339F086E080934A0388E2809332
S11309604E0306C081E080934A0380E280934E03E5
S1130970EFECF7E03197F1F700C0000017C18FEFFB
S1130980898344E060E8CE0101960E940A0348E0AE
S1130990D7016C91CE0101960E940A0364E187E7B6
S11309A093E00E942A01E7E7F3E01082118288E0D5
S11309B0828313821482158216821782D7018C9047
S11309C0912C982C882489818083918284E180876A
S11309D044980E94810380914703882321F086E094
S11309E080934A0303C081E080934A0382E08093AA
S11309F04E03EFECF7E03197F1F700C00000D6C0EA
S1130A008FEF898344E060ECCE0101960E940A03D3
S1130A1048E0D7016C91CE0101960E940A0364E17B
S1130A2087E793E00E942A01E7E7F3E0108211824E
S1130A308CE0828313821482158216821782D70176
S1130A408C90912C982C882489818083918284E1D4
S1130A50808744980E94810380914703882339F05A
S1130A6086E080934A0388E280934E0306C081E0C7
S1130A7080934A0380E280934E03EFECF7E03197D2
S1130A80F1F700C0000092C08FEF89836B01F4E09E
S1130A90CF0ED11C5B0148E0D6016E916D01CE01F1
S1130AA001960E940A03AC14BD04A9F768E287E723
S1130AB093E00E942A01E7E7F3E0D7018D909D902F
S1130AC0AD90BC90282D392D4A2D5B2D60E070E04F
S1130AD080E090E008E00E947819A9812A2B208305
S1130AE0318342835383648375838683978388E247
S1130AF0808744980E94810380914703882321F0D2
S1130B0086E080934A0303C081E080934A0382E035
S1130B1080934E03EFE6F7E13197F1F700C0000050
S1130B2045C080914B03882361F010924B0387E703
S1130B3093E00E947F0190914E03891708F05AC0F8
S1130B40F0CF81E994E00E943011882351F387E7C4
S1130B5093E00E947F0190E020914E0330E0225008
S1130B603109821793070CF447C0E7E7F3E02081CB
S1130B70318142815381648175818681978101E04D
S1130B800E9478192083318342835383648375835D
S1130B908683978332C000E0E4E6F0E080818860D9
S1130BA080831F3109F03FC0439A3DC060914E03DA
S1130BB087E793E00E942A0181E00E94761168E0B1
S1130BC070E081E994E00E94F71081E994E00E94CA
S1130BD02011EBE6F0E0808181608083D89AE8E61A
S1130BE0F0E080818160808381E080931103109222
S1130BF04B0397CF01E001C000E0EBE6F0E0808119
S1130C008E7F8083E8E6F0E080818E7F808310927F
S1130C10110368EE73E081E994E00E94F71080E02C
S1130C200E947611B9CF802F0F90DF91CF911F9141
S1130C300F91FF90EF90DF90CF90BF90AF909F9077
S1130C408F9008958F929F92AF92BF92CF92DF922E
S1130C50EF92FF920F93CF93DF9300D000D0CDB7E4
S1130C60DEB760E070E088E10E940104882309F4A3
S1130C70C9C019821A821B821C82BE016F5F7F4F1A
S1130C8087E793E00E941B03E7E7F3E020813181CB
S1130C904281538164817581868197810F2EFFE49F
S1130CA0EF2EF3E0FF2EF02DD7012C9311963C93F9
S1130CB0119712964C93129713965C93139714966C
S1130CC06C93149715967C93159716968C93169798
S1130CD017969C930F2EF9E5CF2EF3E0DF2EF02D1F
S1130CE0D6012C9311963C93119712964C9312971C
S1130CF013965C93139714966C93149715967C93A0
S1130D00159716968C93169717969C930F2EF3E6C9
S1130D10AF2EF3E0BF2EF02DD5012C9311963C930A
S1130D20119712964C93129713965C9313971496FB
S1130D306C93149715967C93159716968C93169727
S1130D4017969C930F2EFDE68F2EF3E09F2EF02D29
S1130D50D4012C9311963C93119712964C931297AD
S1130D6013965C93139714966C93149715967C932F
S1130D70159716968C93169717969C9301E00E94EC
S1130D8093192083318342835383648375838683D9
S1130D90978363E273E0CF010E941B03F401808117
S1130DA0807F80836FE173E0C4010E941B03D5013F
S1130DB08C91807F83608C936BE173E0C5010E940A
S1130DC01B03F6018081807F8860808367E173E084
S1130DD0C6010E941B03D7018C918F608C9363E141
S1130DE073E0C7010E941B0389819A81AB81BC8196
S1130DF08093430390934403A0934503B093460325
S1130E0081E001C080E00F900F900F900F90DF9170
S1130E10CF910F91FF90EF90DF90CF90BF90AF9064
S1130E209F908F9008958F929F92AF92BF92CF928E
S1130E30DF92EF92FF920F93CF93DF931F92CDB780
S1130E40DEB795E09983E7E2F3E09385981B9387F7
S1130E508285861B8287992314F410923203882397
S1130E6014F410923103BE016F5F7F4F88E00E943B
S1130E700104882381F16FE273E081E00E940104A0
S1130E80882359F1BE016F5F7F4F8CE00E940104FB
S1130E90882329F1E7E7F3E03181428153816481BA
S1130EA020E070E080E090E008E00E949319822E38
S1130EB0932EA42EB52E81E040912F035091300340
S1130EC06091310370913203481559056A057B0519
S1130ED039F080E005C080E003C080E001C080E01C
S1130EE090913203911103C091E0909388030F9085
S1130EF0DF91CF910F91FF90EF90DF90CF90BF9053
S1130F00AF909F908F9008957F928F929F92AF920F
S1130F10BF92CF92DF92EF92FF920F931F93CF93E2
S1130F20DF93CDB7DEB72D970FB6F894DEBF0FBEB3
S1130F30CDBFD82E4A01109212030E9401048823C7
S1130F4009F4A0C080914703882309F487C0E7E728
S1130F50F3E0C080318142815381648120E070E0FC
S1130F6080E090E008E00E949319822F932FA42F31
S1130F70B52F89839A83AB83BC837C2C2FEF2D837D
S1130F80D11083C0B06C89839A83AB83BC837DC04A
S1130F9048E0F80162918F01CE0105960E940A0390
S1130FA00A151B05A9F78D8178120DC081E0809385
S1130FB0120389819A81AB81BC81F401808391837E
S1130FC0A283B3835FC0E7E7F3E0318142815381B9
S1130FD0648120E070E080E090E008E00E949319D2
S1130FE02E833F83488759876A877B878C879D87B1
S1130FF08E819F81A885B985880F991FAA1FBB1F61
S113100089839A83AB83BC831C2D110F2FEF2D830F
S1131010D11005C0B06C89839A83AB83BC8348E04C
S1131020F70162917F01CE0105960E940A03EA143A
S1131030FB04A9F78D81181721F0912F9160891372
S113104021C081E08093120389819A81AB81BC81A4
S1131050F40180839183A283B38314C080917703C6
S113106090917803A0917903B0917A03809590953B
S1131070A095B095F40180839183A283B38381E02A
S1131080809312038091120309C07E01F5E0EF0EF4
S1131090F11CCE0101965C0187017ACF2D960FB623
S11310A0F894DEBF0FBECDBFDF91CF911F910F919A
S11310B0FF90EF90DF90CF90BF90AF909F908F9074
S11310C07F9008953F924F925F926F927F928F929A
S11310D09F92AF92BF92CF92DF92EF92FF920F93C3
S11310E01F93CF93DF93CDB7DEB729970FB6F8944C
S11310F0DEBF0FBECDBF1AE00F2EF7E03F2EF02D5E
S11311000F2EF7E2EF2EF3E0FF2EF02D0F2EF5E574
S11311108F2E982CFAEAAF2EFAE7BF2EF02D0F2E61
S1131120F7E7CF2EF3E0DF2EF02D0F2EFAEA4F2E45
S1131130512CF0E66F2EF9EC7F2EF02D4598299A6C
S11311408FE19EE40197F1F700C000000E9422069F
S1131150882309F494C01982EFE1FEE43197F1F792
S113116000C000004FE353E0BE016F5F7F4F80E09B
S11311700E948407882309F482C03982BE016F5F0C
S11311807F4F88E00E940104882309F478C0F701A6
S113119080829182A282B382B70181E00E9401041D
S11311A0882309F46CC0BE016F5F7F4F8CE00E94FE
S11311B00104882309F463C0F6013181428153811B
S11311C0648120E070E080E090E008E00E949319E0
S11311D02A833B834C835D836E837F8388879987CF
S11311E0F70180819181A281B3812A813B814C8165
S11311F05D8182179307A407B50709F040C081E019
S11312008983BE016F5F7F4F88E00E9401048823B9
S1131210B1F1F701408E518E628E738E6FE373E0ED
S113122081E00E940104882351F1BE016F5F7F4F6A
S11312308CE00E940104882311F1F601318142817E
S11312405381648120E070E080E090E00E94931973
S11312502A833B834C835D836E837F83888799874E
S11312608A819B81AC81BD81B06CF701408D518D29
S1131270628D738D84179507A607B70729F011505F
S113128009F05CCF80E001C081E029960FB6F894A4
S1131290DEBF0FBECDBFDF91CF911F910F91FF90A5
S11312A0EF90DF90CF90BF90AF909F908F907F9002
S11312B06F905F904F903F900895EF92FF920F933D
S11312C01F93CF93DF931F92CDB7DEB780E2E7E29F
S11312D0F3E0DF011D928A95E9F71AE07F0105E04A
S11312E04598299AEFE1FEE43197F1F700C0000038
S11312F0D7015C961D921D921D921C925F970E94CD
S11313002206882309F495C019824FE353E0BE01F5
S11313106F5F7F4F80E00E94840781115AC08091E3
S1131320230390912403A0912503B0912603F70190
S1131330848F958FA68FB78F4FE353E0BE016F5F05
S11313407F4F80E00E94840781115AC0809113036B
S113135090911403A0911503B0911603F701848FA3
S1131360958FA68FB78F4FE353E0BE016F5F7F4F1A
S113137080E00E948407811145C080911F039091F1
S11313802003A0912103B0912203F701848F958F4C
S1131390A68FB78F4FE353E0BE016F5F7F4F80E0AE
S11313A00E94840781112EC080911B0390911C031D
S11313B0A0911D03B0911E03F701848F958FA68F12
S11313C0B78F4FE353E0BE016F5F7F4F80E00E9411
S11313D08407811117C08091170390911803A0917D
S11313E01903B0911A03F701848F958FA68FB78FD5
S11313F04FE353E0BE016F5F7F4F80E00E9484079C
S11314008823B9F009834FE253E0BE016F5F7F4F39
S11314108CE00E94840781113DC009834FE253E0B0
S1131420BE016F5F7F4F8CE00E948407882331F0F8
S113143031C0115009F054CF80E02CC009834FE231
S113144053E0BE016F5F7F4F8CE00E9484078111DF
S113145021C009834FE253E0BE016F5F7F4F8CE0F0
S11314600E948407811116C009834FE253E0BE0134
S11314706F5F7F4F8CE00E94840781110BC009834A
S11314804FE253E0BE016F5F7F4F8CE00E94840700
S1131490882379F20F90DF91CF911F910F91FF90E4
S11314A0EF90089587E293E008956091230370918B
S11314B024038091250390912603089560911F03CE
S11314C070912003809121039091220308956091EB
S11314D01B0370911C0380911D0390911E030895BA
S11314E060911703709118038091190390911A0366
S11314F008956091130370911403809115039091E2
S1131500160308951F920F920FB60F9211242F9372
S11315103F934F935F936F937F938F939F93AF9377
S1131520BF93EF93FF9380911103882319F1189BC4
S113153028C080914A03811119C087E793E00E9473
S11315407F0190914E038917E0F41A9B06C061E075
S113155087E793E00E94360105C060E087E793E0E7
S11315600E94360181E080934B030BC0815080932D
S11315704A0307C01D9905C0809197038460809336
S11315809703FF91EF91BF91AF919F918F917F91BD
S11315906F915F914F913F912F910F900FBE0F90DC
S11315A01F9018951F920F920FB60F9211248F93CC
S11315B09F93809148039091490390938B0080936B
S11315C08A0080914D03882339F080914C03811166
S11315D005C04598299A02C0459A299890914D03CF
S11315E081E0892780934D039F918F910F900FBEC7
S11315F00F901F901895E0919B04E5304CF4EF5F39
S1131600E0939B040E2E000CFF0BE456FB4F8083EB
S11316100895E0919B04EE235CF08FEF8E0F80938E
S11316209B040E2E000CFF0BE456FB4F80810895A3
S11316308FEF08958FEF80939B0408958AED84B90A
S11316402A9828982D982E982F98299A2D9A8EEBBF
S113165087B94098469A41984298439A4498459A43
S1131660599A82EE8AB9589A5A9A5B9A599A5D9A0B
S11316705E9A5F9A81E080937E005D9AEDE6F0E0E9
S113168080818061808380818860808380818460A0
S11316908083EBE6F0E080818E7F808380818F7D84
S11316A080838FEE8093640008958370992781303E
S11316B0910511F024F406C05D9A429808955D9A4C
S11316C0429A08955D9842980895CF93DF93A82F86
S11316D0B0E0FD01B09690962C9141E050E002C03C
S11316E0440F551F6A95E2F730E02423352391E037
S11316F02417350709F090E060E071E0A0E002C033
S113170060E0922FCFECD7E02197F1F700C0000002
S1131710208130E024233523872F2417350709F04F
S11317208A2F282F8913ECCF6F5F633050F3DF913A
S1131730CF9108952E982F98811102C02E9A01C03E
S11317402F9A8FE493EC0197F1F700C000002E98D4
S11317502F980895CF93DF93E4E6F0E080818E7FA5
S11317608083AAE7B0E08C918F778C93CBE7D0E0AD
S113177088818064888387E480937C0080B781605B
S113178080BF80B7826080BF80B7806480BF87ECF1
S113179090E00197F1F700C0000080B78F7780BF19
S11317A080B7806180BF80B7886080BF8C918F775D
S11317B08C93808181608083DF91CF91089580B77D
S11317C0877F80BFEBE7F0E080818F7B808380B7E9
S11317D0806880BF08951F920F920FB60F92112454
S11317E08F93809197038260809397038F910F90DA
S11317F00FBE0F901F9018951F920F920FB60F9265
S113180011242F933F934F935F936F937F938F9301
S11318109F93AF93BF93EF93FF935E9A5F9A299A36
S1131820459A5D9A0E94DF0B87E00E94FB0AFF91B4
S1131830EF91BF91AF919F918F917F916F915F9144
S11318404F913F912F910F900FBE0F901F901895BD
S11318500E9470100E941E0B0E9413110E943C0FE4
S11318600E946902789489B18D718093A2040DE776
S113187014E0C7E8D4E00F2EF5EAAF2EF4E0BF2E53
S1131880F02D0F2EF1ECEF2EF12CF02D0F2EF4E6AF
S11318908F2E912CF02D33243394432C632C0F2E54
S11318A0FDEE5F2EF02D0F2EFDE6CF2ED12CF02D68
S11318B00E94090B8F3F09F44EC10E94561080917B
S11318C08503813021F580918603813011F5712CD7
S11318D001C0762CF8018081813171F481818033DB
S11318E059F48281803341F484EB93E00E94D50162
S11318F084EB93E00E94840210927C04EDE7F4E010
S11319001192EC17FD07E1F71092860303C0712CC6
S113191001C0712C772061F20E946A11811147C0C5
S113192080918703811145C0F501808180FD41C00C
S1131930F701808183FF0AC0F701808183FDFCCF1A
S11319408FE99FE00197F1F700C00000F401508295
S11319508091A10481111AC080918203882369F0C7
S1131960109282031092810382E00E94FB0A80910C
S1131970A204877F8093A20415C0F6018081816050
S1131980808383B7817F846083BF03C083B7817FF3
S113199083BF83B7816083BF7894889583B78E7F34
S11319A083BFF894F60180818E7F808302C00E94F9
S11319B05311789400008091A104811106C08FE333
S11319C09CE90197F1F700C00000F8948091970317
S11319D080938703109297037894809187038823D8
S11319E009F466CF81FF7FC064E089E00E94650B43
S11319F0882359F08091A104811107C00E94FB0A39
S1131A00E3EAF4E080818E7F808362E089E00E94D3
S1131A10650B882369F08091A20482FD03C084E0F1
S1131A200E94FB0A8091A20484608093A2040CC0EB
S1131A308091A20482FF03C085E00E94FB0A80918A
S1131A40A2048B7F8093A20463E089E00E94650B6B
S1131A50882359F18091A20483FD21C083E00E9470
S1131A60FB0A8091A104823011F440928103E4EADC
S1131A70F4E080818B7F808380818D7F808380915F
S1131A808303813021F080918403813041F484EB1D
S1131A9093E00E94D50184EB93E00E94840280913C
S1131AA0A20488608093A20419C08091A1048130AB
S1131AB021F090918103992319F04092820309C087
S1131AC0811107C08091A20483FF03C082E00E94B9
S1131AD0FB0A8091A204877F8093A20480918703EC
S1131AE08D7F809387038091870382FF13C09FEBD0
S1131AF0E4EDF1E09150E040F040E1F700C0000077
S1131B001D9903C0832D0E94FB0A809187038B7F5C
S1131B10809387038091870385FF08C086E00E9435
S1131B20FB0A809187038F7D8093870380918703CD
S1131B3086FF08C089E00E94FB0A809187038F7B9F
S1131B40809387038091870388230CF0A8CE8F7736
S1131B5080938703A0CE80918503813009F0DCCE89
S1131B6080918603813009F4B4CED6CE0000089566
S1131B70E4EAF4E080818B7F808383E08093A70490
S1131B80089588E78093A70408951092A1040E9401
S1131B903A1308955E9A5E988FE39CE90197F1F7F2
S1131BA000C000005E9A08955F988FE39CE9019756
S1131BB0F1F700C000005F9A08950E949E1480917E
S1131BC0A50482FF08C0E5EAF4E080818B7F80836E
S1131BD080E00E94FB0A0895EF92FF920F931F93F7
S1131BE0CF93DF9300D000D01F92CDB7DEB7299AF0
S1131BF0E7EAF4E0808181508083882321F080919A
S1131C008803882341F01092A1040E943A1381E0D2
S1131C108093840325C18091A50486FDBCC084EB18
S1131C2093E00E94BB0184EB93E00E948402E0E90C
S1131C30F3E09381818198170CF0A6C08091920300
S1131C4018160CF0A1C00E94DF0B0E94D50007EA11
S1131C5014E0D80113968C930E94AA0BE0E9F3E0F8
S1131C60D80113968C919081891B938198170CF05D
S1131C7092C0891B84300CF481C05E9A8091B104B7
S1131C809091B20404968436910528F49093B2049A
S1131C908093B10414C0E7EAF4E0138612868485C5
S1131CA09585A685B7850196A11DB11D8487958765
S1131CB0A687B787E5EAF4E080818061808360913C
S1131CC0B10486EE90E00E94EC19EFE1FEE4319756
S1131CD0F1F700C000001BE00E942206882371F186
S1131CE01D828FE19EE40197F1F700C00000AE0170
S1131CF04F5F5F4FBE016B5F7F4F80E00E948407A0
S1131D0080938903811120C00E94520A7C010E94A1
S1131D10550AD7015C966D937D938D939C935F9741
S1131D20AE014F5F5F4FBE016B5F7F4F80E00E944B
S1131D30840780938903882389F106C0115061F6D2
S1131D40809189038823B1F060E070E084E090E042
S1131D500E941307882349F0E0E9F3E083818C5F54
S1131D60838388E78093A70405C0E0E9F3E08581D5
S1131D708F5F85835E98299A459A0DC0E0E9F3E068
S1131D8084818F5F848307C081E0809396031092DF
S1131D90A1040E943A131092840362C00E94520A62
S1131DA07C010E94790AF701648F758F868F978F63
S1131DB0AE014F5F5F4FBE016B5F7F4F80E00E94BB
S1131DC08407809389038111BFCF0E94520A7C014A
S1131DD00E945E0AD7015C966D937D938D939C93CC
S1131DE05F97AE014F5F5F4FBE016B5F7F4F80E037
S1131DF00E948407809389038111A6CF0E94520A0E
S1131E007C010E94670AF701648F758F868F978F14
S1131E10AE014F5F5F4FBE016B5F7F4F80E00E945A
S1131E2084078093890381118FCF0E94520A7C0119
S1131E300E94700AD7015C966D937D938D939C9359
S1131E405F97AE014F5F5F4FBE016B5F7F4F80E0D6
S1131E500E94840780938903882309F46FCF74CF89
S1131E600F900F900F900F900F90DF91CF911F91D3
S1131E700F91FF90EF900895EF92FF920F931F93AD
S1131E80CF93DF931092A3041092A4041092A5049C
S1131E901092A604E5EAF4E0808188608083E7EA92
S1131EA0F4E017821682118214821582118610863C
S1131EB0789483EB94E00E94901087E00E9487005E
S1131EC02FEF30E782E0215030408040E1F700C03E
S1131ED0000087E00E9487008330924050F10E9406
S1131EE05D09882331F10E94520AFC018085833008
S1131EF001F5E7EAF4E08FEF828B118A108A1486E9
S1131F00158616861786E5EAF4E080818061808371
S1131F1083EB94E00E9490105E985F98FFEF29E6AF
S1131F2038E1F15020403040E1F700C000005F9AF2
S1131F305E9A80E590E00E94DC198C0182E590E0D5
S1131F400E94DC197C0180E890E00E94D4198093FF
S1131F508B03C82FD0E0CC0FDD1FCE018E579F4FCF
S1131F600E94DC1990938D0380938C03CE018C54D2
S1131F709F4F0E94DC199093AE048093AD0486EECB
S1131F8090E00E94D41990E08436910528F490934F
S1131F90B2048093B10409C01092B2041092B10447
S1131FA060E086EE90E00E94EC190F3F1F4F09F0AD
S1131FB049C0EF20E09409F045C047E050E060E0FC
S1131FC070E083EB94E00E94C419C7EAD4E08FEF79
S1131FD09FEF998B888B8FEF9FEFDC018C879D8718
S1131FE0AE87BF871F821E8210928B0310928D03CF
S1131FF010928C0347E050E060E070E083EB94E0E3
S11320000E94E21960EA70E080E590E00E94FA190B
S113201060E273E082E590E00E94FA1960918B031C
S113202080E890E00E94EC196E817F8184EB90E05F
S11320300E94FA1960918C0370918D0382E890E0FC
S11320400E94FA19F8945D985F988FE05F985E9A01
S1132050EFEFF4E32CE0E150F0402040E1F700C062
S113206000005F9A5E983FEF94E3ECE031509040BB
S1132070E040E1F700C00000815041F75E9A5F9AAA
S11320800E94AF120E941A0BDA9AE8E6F0E080810F
S1132090846080838FEF0E949A0B1092A104DF91D9
S11320A0CF911F910F91FF90EF90089590E0DC0184
S11320B0AA0FBB1FA80FB91F8091A1049EE1899F9D
S11320C0A00DB11D1124A050BF4F1196ED91FC91AC
S11320D012978C918093A10409958091A10408958D
S11320E0E1E6F0E080E8808310820895F894A895F2
S11320F094B7977F94BFE0E6F0E098E19083806422
S1132100808378940895F894A89584B7877F84BFD2
S1132110E0E6F0E080818061808310827894089505
S1132120CF93DF93EC018091A50484FF19C047E0AD
S113213050E060E070E0CE010E94E2196091AD04CD
S11321407091AE0480918B0390E0880F991F8C549A
S11321509F4F0E94FA19E5EAF4E080818F7E808324
S113216047E050E060E070E0CE010E94C419809125
S11321708A038150823030F560918C0370918D0315
S113218080918B0390E0880F991F8E579F4F0E9478
S1132190FA196091AD047091AE0480918B0390E0C4
S11321A0880F991F8C549F4F0E94FA1980918A03BB
S11321B0823031F460918B0380E890E00E94EC1946
S11321C010928A03DF91CF9108951F920F920FB658
S11321D00F9211248F9380919703806280939703C9
S11321E0A8958F910F900FBE0F901F901895DC014A
S11321F0EEE6F0E080818E7F808314968C911497B4
S11322008D7F8E7F14968C93149711967C936E9386
S113221013961C921E92129716BC81E085BB808196
S11322208160808308956FEF70E086E994E00E94F6
S1132230F7106FEF70E081E994E00E94F7100895C1
S1132240DC01EEE6F0E090819E7F908314968C9101
S11322501497826014968C938081816080830895A2
S1132260FC01848181700895FC01892B91F08481A3
S113227081FF0FC0828193810196938382832081A1
S113228031818217930728F013821282848181603E
S11322908483089586E994E00E94341181E994E0EE
S11322A00E943411089580919A0480FF07C0EAE9DE
S11322B0F4E08E7F808387E00E94FB0A809195047E
S11322C080FF07C0E5E9F4E08E7F808388E00E9408
S11322D0FB0A089580919A0481FD06C080919504BB
S11322E086958170819508958FEF0895882369F00C
S11322F0E4E6F0E080818F7D808384E085BD16BCB8
S113230081E085BB80936E000895EEE6F0E0808165
S11323108E7F8083E4E6F0E080818062808308958C
S11323201F920F920FB60F9211242F933F934F9346
S11323305F936F937F938F939F93AF93BF93EF9329
S1132340FF930E944A11FF91EF91BF91AF919F912A
S11323508F917F916F915F914F913F912F910F904A
S11323600FBE0F901F901895CF93DF9363E089E021
S11323700E94650B882369F08091A20483FD03C049
S113238083E00E94FB0A8091A20488608093A204E7
S11323900CC08091A20483FF03C082E00E94FB0A68
S11323A08091A204877F8093A2041092810368EE37
S11323B073E086E994E00E94F71068EE73E081E927
S11323C094E00E94F71080E00E947611299A459AC1
S11323D0CBE6D0E08881897F88835E9A80E090E0B4
S11323E00E94550B5D9888818F7D888341988FEC7E
S11323F097E00197F1F700C00000429A9FEF20E7B1
S113240082E0915020408040E1F700C000004298F3
S11324105A9A8091A30484FF13C08091AF049091D1
S1132420B004803D27E0920730F0E3EAF4E08081D5
S11324308860808305C001969093B0048093AF04B4
S113244087E00E948700873421E0920770F480912E
S1132450AC04853030F0E3EAF4E080818860808366
S113246021C08F5F8093AC041DC01092AC048536EC
S11324709140B0F48091AB04853070F08091A30456
S113248084FD10C0E3EAF4E08081806180831092CF
S1132490B0041092AF0406C08F5F8093AB0402C0F7
S11324A01092AB048091A30484FF02C05F9801C022
S11324B05F9A0E94D5008093AA045D9A682F70E009
S11324C080E090E00E944118C1E020E030E040EA62
S11324D051E40E94991718160CF4C0E0E3EAF4E002
S11324E08081C0FB86F98083808184FD08C080914F
S11324F0A30486FF04C087E00E94761002C00E94F5
S1132500831063E089E00E94650B882331F0809199
S1132510A20488608093A20405C08091A204877FEE
S11325208093A204E4E6F0E080818D7F80830E94A2
S113253069020E9472028091A50483FF05C0E5EA46
S1132540F4E08081877F8083EDE6F0E08081806124
S11325508083808188608083DF91CF9108950E9479
S1132560B411089510928303E3EAF4E080818F7D2F
S113257080838091A50480FD7AC08091A30483FDAB
S113258076C00E947E025D98EDE6F0E080818F7E49
S11325908083808184608083EBE6F0E080818062C8
S11325A08083D89AE8E6F0E08081816080835E9A37
S11325B05F9AE7EAF4E0468157814F5F5F4F5783A4
S11325C046839A013695279536952795ABE7B4E16E
S11325D00E9469199695879564E6689F9001699FA2
S11325E0300D11244217530711F581E080938A03BB
S11325F080918C0390918D030196883223E2920797
S113260028F490938D0380938C0311C010928D0352
S113261010928C0380918B038E5F823318F4809325
S11326208B0302C010928B0382E080938A03483E9E
S1132630534070F0E7EAF4E01782168280899189AA
S11326400196918B808BE5EAF4E080818061808340
S1132650419A81E00E94761164EF70E086E994E08B
S11326600E94F71086E994E00E94201108951092C8
S1132670A10408950E94DF0B8FEF0E949A0BE4EAF5
S1132680F4E080818E7F8083109285030E94B411D0
S11326900895299A5F9A5E9A86E00E94761081E0F6
S11326A00E94761160ED73E086E994E00E94F710D1
S11326B086E994E00E94201183E08093A1041092A3
S11326C085030895E3EAF4E080818160808380815A
S11326D08062808341988FEC97E00197F1F700C006
S11326E00000429A9FEF20E782E091502040804012
S11326F0E1F700C0000042980E9449130895E3EAFC
S1132700F4E080818160808380818F7D80838081FB
S113271084FF03C080818860808341988FEC97E0B8
S11327200197F1F700C00000429A9FEF20E782E092
S1132730915020408040E1F700C0000042980E9480
S1132740491308950F931F93CF93DF93E4EAF4E0C2
S113275080818460808381E0809385031092830369
S1132760109288030E9472028091A30483FDD9C051
S11327705E9A5F9AEDE6F0E080818B7F80838081B2
S11327808F7E8083C0E007C08FE097E20197F1F766
S113279000C00000CF5F0E945D09811103C0C330F7
S11327A099F7B4C0C33008F0B1C0E4EAF4E0808122
S11327B082608083299A83EB94E00E9490100E94A7
S11327C0520AFC0180858F73E3EAF4E090819D7FD7
S11327D09083833009F445C09091B9049F3FC1F4BC
S11327E09091A90489130FC0E7EAF4E091819F5FF7
S11327F091839230C0F08093B904E5EAF4E08081DB
S11328008061808310C0E7EAF4E0828311820BC008
S11328109093A904891739F0E3EAF4E08081826097
S11328208083C0E011C00E94520AFC0183851816FF
S11328304CF40E94520AC1E0FC01828518161CF077
S1132840C0E001C0C0E0C170E5EAF4E080818F7BA4
S1132850808384ED92E00E948402CC2309F464C056
S113286019C0E7EAF4E0118283E0828382898F3F12
S113287041F08FEF8093B904E5EAF4E08081806150
S11328808083E5EAF4E08081806480838CEE92E0CA
S11328900E9484020E94520AC0E9D3E0FC018285AE
S11328A08A830E94520AFC01838589831B821D82CC
S11328B01C821E825D98FFEF24E38CE0F1502040DF
S11328C08040E1F700C000000E94D50007EA14E050
S11328D0F801838388835E9880E00E949A0BFFEF5F
S11328E020E782E0F15020408040E1F700C0000082
S11328F0E4EAF4E08081816080830E94AA0B88E787
S1132900F801808386E00E94761013C0E4EAF4E0C4
S113291080818D7F8083E3EAF4E08081826080831C
S113292003C01092A10405C00E94491381E0809362
S11329308303DF91CF911F910F9108950F931F93FC
S1132940CF93DF93CDB7DEB7EC970FB6F894DEBF25
S11329500FBECDBF81E080938F038093BA04EDE76F
S1132960F4E001900020E9F73197ED57F4402E2F61
S11329701092B403EE2309F48FC180917D04813158
S113298009F04DC0109280048EE794E00E94A616D0
S1132990613231F4E5EAF4E08081846080830BC025
S11329A0623221F480E00E949A0B05C0633219F46C
S11329B08FEF0E949A0B80917D04813109F58091FB
S11329C07E04803301F580917F048033F9F45D98AF
S11329D02FEF80E792E0215080409040E1F700C063
S11329E000000E94D5008093AA04809390035D9A0E
S11329F0CE0101960E94D5019E012F5F3F4F08C072
S1132A0020E030E005C020E030E002C020E030E00B
S1132A101092BA0480918F03811151C165C1FF27BF
S1132A20E458FB4FE0818E2F90E0FC01E456F1095D
S1132A30E431F10508F02DC1EC5AFF4F0C946319F1
S1132A4028E731E036C1233049F510927F0462E073
S1132A5073E08DE794E00E94BB19892B09F04AC109
S1132A6086E00E9487008C0180E590E00E94DC19DA
S1132A708017910720F4B801681B790B02C061E04C
S1132A8070E082E590E00E94FA1960E871E084EB5E
S1132A9093E00E94ED1620E030E003C10E94BB00E9
S1132AA0BC0184EB93E00E94801720E030E0F9C081
S1132AB02330E1F410927F0462E073E08DE794E048
S1132AC00E94BB19892B09F018C186E00E94870077
S1132AD0BC0180E590E00E94FA1960E871E084EBA3
S1132AE093E00E94ED1620E030E0DBC00E94C800B5
S1132AF0BC0184EB93E00E94801720E030E0D1C059
S1132B000E94520A8C01FC01448D558D668D778D8F
S1132B10CE0101960E943417BE016F5F7F4F84EB94
S1132B2093E00E94FC1669EE72E084EB93E00E944D
S1132B30FC16F801408D518D628D738DCE01019686
S1132B400E943417BE016F5F7F4F84EB93E00E94B5
S1132B50FC1669EE72E084EB93E00E94FC16F80127
S1132B604489558966897789CE0101960E94341774
S1132B70BE016F5F7F4F84EB93E00E94FC1669EE09
S1132B8072E084EB93E00E94FC16F80140895189BD
S1132B9062897389CE0101960E943417BE016F5F6A
S1132BA07F4F84EB93E00E94FC1669EE72E084EBA5
S1132BB093E00E94FC16F801448555856685778567
S1132BC0CE0101960E943417BE016F5F7F4F84EBE4
S1132BD093E00E94FC1669EE72E084EB93E00E949D
S1132BE0FC16F8014085518562857385CE010196F6
S1132BF00E943417BE016F5F7F4F84EB93E00E9405
S1132C00FC1669EE72E084EB93E00E94FC16F80176
S1132C104481558166817781CE0101960E943417E3
S1132C2069EE72E084EB93E00E94FC16F8014081A7
S1132C30518162817381CE0101960E943417BE01D5
S1132C406F5F7F4F84EB93E00E94FC1620E030E03E
S1132C5028C00E946208299A20E030E022C0E5EAF8
S1132C60F4E080818260808365E073E084EB93E02C
S1132C700E94ED1620E030E014C00E94D50080933D
S1132C80AA04682F84EB93E00E941F1720E030E031
S1132C9008C010928F0328C010928F0325C023E828
S1132CA031E080918F038823F9F08091BA0488235E
S1132CB031F0E5EAF4E08081816080835D98909151
S1132CC0A50492FD11C02115310559F469EE72E095
S1132CD084EB93E00E94FC1684EB93E00E94840250
S1132CE003C0C9010E9484020E94720209C02BE938
S1132CF031E0DFCF20E030E0DCCF20E030E0D9CF9E
S1132D00EC960FB6F894DEBF0FBECDBFDF91CF9126
S1132D101F910F910895982F80ED890F8A3040F00C
S1132D208FEB890F863018F489EC890F089580E0C1
S1132D300895FC012081222339F0319680E08F5FD1
S1132D4091919111FCCF089580E00895AF92BF92C4
S1132D50CF92DF92EF92FF920F931F93CF93DF9363
S1132D60D82FC92F0E949916A82E882331F10D2F30
S1132D701C2FC82FD0E02197CC0FDD1FCC0FDD1FF7
S1132D80C12CD12C7601B12CF80181918F010E94C4
S1132D908B1690E0A0E0B0E00C2E04C0880F991FC1
S1132DA0AA1FBB1F0A94D2F7C80ED91EEA1EFB1E27
S1132DB0B3942497AB10E8CF03C0C12CD12C760177
S1132DC0C701B601DF91CF911F910F91FF90EF9052
S1132DD0DF90CF90BF90AF900895FB012081222314
S1132DE041F031960196DC0111972C932191211128
S1132DF0F9CFFC0110820895CF93DF93FC01808109
S1132E00882339F0CF010196FC010196208121111C
S1132E10FBCFDB018C91882341F011963196EF01B1
S1132E20219788838D918111F9CF1082DF91CF9101
S1132E3008958A3010F4805D0895895C08951F9385
S1132E40CF93DF93EC01162F862F82958F700E940B
S1132E5019178883812F8F700E94191789831A820A
S1132E60DF91CF911F9108950F931F93CF93DF9319
S1132E7000D000D0CDB7DEB78C0149835A836B8371
S1132E807C836C810E941F176B81C80102960E948B
S1132E901F176A81C80104960E941F176981C8011F
S1132EA006960E941F170F900F900F900F90DF91BE
S1132EB0CF911F910F910895EF92FF920F931F935B
S1132EC0CF93DF934423A9F08B01C82FD92F41500E
S1132ED0E42EF12C8FEFE81AF80AE60EF71EF8013B
S1132EE061918F01CE010E941F1722960E151F05B6
S1132EF0B1F7DF91CF911F910F91FF90EF9008955B
S1132F000F931F93CF93DF9300D0CDB7DEB78C011F
S1132F107A8369836A810E941F176981C8010296B6
S1132F200E941F170F900F90DF91CF911F910F9167
S1132F3008950E947C1808F481E008950E94B21755
S1132F400C94B7180E94B01858F00E94A91840F0C9
S1132F5029F45F3F29F00C94A01851110C94EB183C
S1132F600C94A6180E94C81868F39923B1F355234A
S1132F7091F3951B550BBB27AA2762177307840788
S1132F8038F09F5F5F4F220F331F441FAA1FA9F31E
S1132F9035D00E2E3AF0E0E832D091505040E6950C
S1132FA0001CCAF72BD0FE2F29D0660F771F881F6D
S1132FB0BB1F261737074807AB07B0E809F0BB0B60
S1132FC0802DBF01FF2793585F4F3AF09E3F510574
S1132FD078F00C94A0180C94EB185F3FE4F3983E3F
S1132FE0D4F3869577956795B795F7959F5FC9F75D
S1132FF0880F911D9695879597F90895E1E0660FDE
S1133000771F881FBB1F621773078407BA0720F056
S1133010621B730B840BBA0BEE1F88F7E0950895BF
S11330200E94D01888F09F5798F0B92F9927B7516C
S1133030B0F0E1F0660F771F881F991F1AF0BA9558
S1133040C9F714C0B13091F00E94EA18B1E00895B4
S11330500C94EA18672F782F8827B85F39F0B93FA6
S1133060CCF3869577956795B395D9F73EF490950B
S11330708095709561957F4F8F4F9F4F0895E89489
S113308009C097FB3EF490958095709561957F4FAC
S11330908F4F9F4F9923A9F0F92F96E9BB2793955A
S11330A0F695879577956795B795F111F8CFFAF46A
S11330B0BB0F11F460FF1BC06F5F7F4F8F4F9F4F9B
S11330C016C0882311F096E911C0772321F09EE8F9
S11330D0872F762F05C0662371F096E8862F70E05F
S11330E060E02AF09A95660F771F881FDAF7880F39
S11330F09695879597F90895990F0008550FAA0B8F
S1133100E0E8FEEF16161706E807F907C0F01216F6
S11331101306E407F50798F0621B730B840B950BF9
S113312039F40A2661F0232B242B252B21F408954E
S11331300A2609F4A140A6958FEF811D811D0895EB
S113314097F99F6780E870E060E008959FEF80EC56
S1133150089500240A9416161706180609060895F9
S113316000240A9412161306140605060895092E5F
S11331700394000C11F4882352F0BB0F40F4BF2BCE
S113318011F460FF04C06F5F7F4F8F4F9F4F08950E
S113319057FD9058440F551F59F05F3F71F0479504
S11331A0880F97FB991F61F09F3F79F087950895E9
S11331B0121613061406551FF2CF4695F1DF08C008
S11331C0161617061806991FF1CF86957105610525
S11331D008940895E894BB2766277727CB0197F9CD
S11331E008950E947C1808F48FEF08950E9409192D
S11331F00C94B7180E94A91838F00E94B01820F057
S1133200952311F00C94A0180C94A61811240C9476
S1133210EB180E94C81870F3959FC1F3950F50E006
S1133220551F629FF001729FBB27F00DB11D639F74
S1133230AA27F00DB11DAA1F649F6627B00DA11D1A
S1133240661F829F2227B00DA11D621F739FB00DC0
S1133250A11D621F839FA00D611D221F749F332730
S1133260A00D611D231F849F600D211D822F762FC9
S11332706A2F11249F5750409AF0F1F088234AF0A6
S1133280EE0FFF1FBB1F661F771F881F9150504012
S1133290A9F79E3F510580F00C94A0180C94EB18EC
S11332A05F3FE4F3983ED4F3869577956795B79599
S11332B0F795E7959F5FC1F7FE2B880F911D9695B3
S11332C0879597F90895EE0FFF1F0590F491E02D6F
S11332D00994A29FB001B39FC001A39F700D811DEB
S11332E01124911DB29F700D811D1124911D08950B
S11332F00F93083090F0982F872F762F652F542F37
S1133300432F322F22270850F4CF220F331F441F9C
S1133310551F661F771F881F991F0A95B2F70F91D3
S1133320089597FB10F8169400080F93083098F04E
S11333300850232F342F452F562F672F782F892F8E
S1133340902DF4CF05949795879577956795579524
S11333504795379527950A95AAF70F910895002464
S1133360A7FD00942A173005400550056005700537
S1133370800590050895FB01DC018D910190801971
S11333800110D9F3990B0895DC01CB01FC01F999E3
S1133390FECF06C0F2BDE1BDF89A319600B40D929D
S11333A041505040B8F70895F999FECF92BD81BDC0
S11333B0F89A992780B50895A8E1B0E042E050E07A
S11333C00C94C619DC01CB0103C02D910E94ED19A8
S11333D041505040D0F70895262FF999FECF1FBAD7
S11333E092BD81BD20BD0FB6F894FA9AF99A0FBE2A
S11333F0019608950E94EC19272F0C94ED19F89466
S1053400FFCFF8
S113340201B21200B60D02A21300B60D00B60D00F1
S1133412B60D00CA0D00B60D00B60D00DD0D01B6E5
S11334220D01621301B60D01B60D00AF1201B60D06
S113343201B60D007F1301B60D01B60D02B60D02E1
S1133442B60D02C10D02B80D02B60D02B60D02ECA4
S11334520D003A1302C50D02B60D00AF1203B60DEC
S113346200AF1200AF1203B60D03B60D03D40D0064
S1133472AF1203B60D03B60D56312E32330D0A00C8
S11334824F4B004D617220203820323032320D0A07
S113349231303A30313A35300D0A000D0A3D3D3DA6
S11334A23D3D3D3D3D3D3D3D3D2048656C70204DDB
S11334B2656E750D0A0D0A6409646973706C61792D
S11334C220462F5720636F6D70696C6520646174A8
S11334D2650D0A3031672C6709646F2F6469737054
S11334E26C617920776569676874206761696E2009
S11334F263616C6962726174696F6E0D0A68096452
S11335026973706C617920746869732068656C7082
S1133512206D656E750D0A30316F2C6F09646F2F43
S1133522646973706C617920776569676874206F68
S113353266667365742063616C6962726174696F33
S11335426E0D0A7209646973706C6179206C61731F
S113355274207265616420656B65792064617461AD
S11335620D0A7509756E6C6F636B20736572696100
S11335726C20636F6D6D756E69636174696F6E73D0
S1133582206D6F64650D0A7609646973706C6179E4
S1133592206669726D776172652076657273696FF0
S11335A26E0D0A7709646973706C617920776569B5
S11335B2676874206D6561737572656D656E740DEF
S11335C20A0D0A3D3D3D3D3D3D3D3D3D3D3D3D0DEB
S11335D20A0D0A0054686973206973204E4F5420FF
S11335E25245534554204B45590D0A00546869739A
S11335F22069732061205245534554204B45590D8F
S11136020A00303100554E4C4F434B454400F6
S9030000FC
